{"contracts/EmploymentContract.sol":{"EmploymentContract":{"abi":[{"inputs":[{"internalType":"address","name":"_employer","type":"address"},{"internalType":"address","name":"_employee","type":"address"},{"internalType":"uint48","name":"_startDate","type":"uint48"},{"internalType":"uint48","name":"_endDate","type":"uint48"},{"internalType":"uint48","name":"_salaryPerMonth","type":"uint48"},{"internalType":"uint48","name":"_totalSickDays","type":"uint48"}],"stateMutability":"nonpayable","type":"constructor"},{"anonymous":false,"inputs":[{"indexed":false,"internalType":"address","name":"sender","type":"address"},{"indexed":false,"internalType":"address","name":"reciever","type":"address"},{"indexed":false,"internalType":"uint256","name":"amount","type":"uint256"}],"name":"SickLeaveTransaction","type":"event"},{"inputs":[],"name":"activateContract","outputs":[],"stateMutability":"nonpayable","type":"function"},{"inputs":[],"name":"employee","outputs":[{"internalType":"address","name":"","type":"address"}],"stateMutability":"view","type":"function"},{"inputs":[],"name":"employer","outputs":[{"internalType":"address","name":"","type":"address"}],"stateMutability":"view","type":"function"},{"inputs":[],"name":"endDate","outputs":[{"internalType":"uint48","name":"","type":"uint48"}],"stateMutability":"view","type":"function"},{"inputs":[],"name":"head","outputs":[{"internalType":"address","name":"","type":"address"}],"stateMutability":"view","type":"function"},{"inputs":[],"name":"isActive","outputs":[{"internalType":"bool","name":"","type":"bool"}],"stateMutability":"view","type":"function"},{"inputs":[],"name":"isContractActive","outputs":[{"internalType":"bool","name":"","type":"bool"}],"stateMutability":"view","type":"function"},{"inputs":[],"name":"paySalary","outputs":[],"stateMutability":"payable","type":"function"},{"inputs":[{"internalType":"uint8","name":"_index","type":"uint8"}],"name":"paySickLeave","outputs":[],"stateMutability":"payable","type":"function"},{"inputs":[{"internalType":"uint48","name":"_startDate","type":"uint48"},{"internalType":"uint48","name":"_endDate","type":"uint48"}],"name":"requestSickLeave","outputs":[],"stateMutability":"nonpayable","type":"function"},{"inputs":[],"name":"salary","outputs":[{"internalType":"uint48","name":"salaryPerMonth","type":"uint48"}],"stateMutability":"view","type":"function"},{"inputs":[],"name":"sickLeave","outputs":[{"internalType":"uint48","name":"totalDays","type":"uint48"},{"internalType":"uint48","name":"usedDays","type":"uint48"}],"stateMutability":"view","type":"function"},{"inputs":[],"name":"startDate","outputs":[{"internalType":"uint48","name":"","type":"uint48"}],"stateMutability":"view","type":"function"},{"inputs":[],"name":"terminateContract","outputs":[],"stateMutability":"nonpayable","type":"function"}],"evm":{"bytecode":{"linkReferences":{},"object":"60806040523461003657610020610014610176565b949390939291926109ee565b61002861003b565b611687610ab2823961168790f35b610041565b60405190565b600080fd5b601f801991011690565b634e487b7160e01b600052604160045260246000fd5b9061007090610046565b810190811060018060401b0382111761008857604052565b610050565b906100a061009961003b565b9283610066565b565b600080fd5b60018060a01b031690565b6100bb906100a7565b90565b6100c7816100b2565b036100ce57565b600080fd5b905051906100e0826100be565b565b65ffffffffffff1690565b6100f6816100e2565b036100fd57565b600080fd5b9050519061010f826100ed565b565b909160c0828403126101715761012a83600084016100d3565b9261013881602085016100d3565b926101468260408301610102565b9261016e6101578460608501610102565b936101658160808601610102565b9360a001610102565b90565b6100a2565b610194612139803803806101898161008d565b928339810190610111565b909192939495565b60001b90565b906101b360018060a01b039161019c565b9181191691161790565b90565b6101d46101cf6101d9926100a7565b6101bd565b6100a7565b90565b6101e5906101c0565b90565b6101f1906101dc565b90565b90565b9061020c610207610213926101e8565b6101f4565b82546101a2565b9055565b60a01b90565b9061023165ffffffffffff60a01b91610217565b9181191691161790565b61024f61024a610254926100e2565b6101bd565b6100e2565b90565b90565b9061026f61026a6102769261023b565b610257565b825461021d565b9055565b60d01b90565b9061028f60ff60d01b9161027a565b9181191691161790565b151590565b6102a790610299565b90565b90565b906102c26102bd6102c99261029e565b6102aa565b8254610280565b9055565b606090565b6102dc604061008d565b90565b906102e9906100e2565b9052565b52565b634e487b7160e01b600052600060045260246000fd5b61031090516100e2565b90565b9061032465ffffffffffff9161019c565b9181191691161790565b9061034361033e61034a9261023b565b610257565b8254610313565b9055565b5190565b5490565b90565b634e487b7160e01b600052601160045260246000fd5b61037e61038491939293610356565b92610356565b91610390838202610356565b92818404149015171561039f57565b610359565b60059060018203010490565b600052602060002090565b1b90565b919060086103db9102916103d5600019846103bb565b926103bb565b9181191691161790565b6103f96103f46103fe92610356565b6101bd565b610356565b90565b90565b919061041a610415610422936103e5565b610401565b9083546103bf565b9055565b600090565b61043d91610437610426565b91610404565b565b5b81811061044b575050565b80610459600060019361042b565b01610440565b1c90565b90610477906000199060200360080261045f565b8154169055565b91909182821061048e575b505050565b6006600561049e6104c7956103a4565b6104b06104aa866103a4565b946103b0565b9384019301930602600081116104cf575b5061043f565b388080610489565b6104dc9060018303610463565b386104c1565b9068010000000000000000811161050b578161050061050993610352565b9082815561047e565b565b610050565b5190565b60200190565b9190600861053a91029161053465ffffffffffff846103bb565b926103bb565b9181191691161790565b9061054e81610510565b9060018060401b038211610636576105726105789161056d84866104e2565b610514565b926103b0565b600582049160005b8381106105ec57506005830290036000811161059d575b50505050565b9260009360005b8181106105b957505050015538808080610597565b90919460206105e06001926105d56105d08a610306565b610257565b90856006029061051a565b960191019190916105a4565b6000805b600581106106075750906001918185015501610580565b9590602061062d60019261062261061d86610306565b610257565b908a6006029061051a565b920196016105f0565b610050565b9061064591610544565b565b906106746020600161067a9461066c6000820161066660008801610306565b9061032e565b01920161034e565b9061063b565b565b9061068691610647565b565b606090565b610697606061008d565b90565b90565b6106b16106ac6106b69261069a565b6101bd565b6100e2565b90565b52565b60301b90565b906106d96bffffffffffff000000000000916106bc565b9181191691161790565b906106f86106f36106ff9261023b565b610257565b82546106c2565b9055565b5190565b60200190565b5490565b61071c90600361036f565b90565b600052602060002090565b60026000918280820155610741836001830161042b565b0155565b90600003610758576107569061072a565b565b6102f0565b5b818110610769575050565b806107776000600393610745565b0161075e565b909182811061078c575b505050565b6107aa6107a461079e6107b595610711565b92610711565b9261071f565b91820191019061075d565b388080610787565b906801000000000000000081116107e657816107db6107e49361070d565b9082815561077d565b565b610050565b5190565b5190565b6107fd9051610356565b90565b9061080d6000199161019c565b9181191691161790565b9061082c610827610833926103e5565b610401565b8254610800565b9055565b634e487b7160e01b600052602160045260246000fd5b6003111561085757565b610837565b906108668261084d565b565b610872905161085c565b90565b9061088160ff9161019c565b9181191691161790565b6108949061085c565b90565b90565b906108af6108aa6108b69261088b565b610897565b8254610875565b9055565b906109196060600261091f946108df600082016108d960008801610306565b9061032e565b6108f8600082016108f260208801610306565b906106e3565b6109116001820161090b604088016107f3565b90610817565b019201610868565b9061089a565b565b9061092b916108ba565b565b61095261094c61093c846107eb565b9361094785856107bd565b610707565b9161071f565b6000915b8383106109635750505050565b600360208261097c6109766001956107ef565b86610921565b01920192019190610956565b906109929161092d565b565b906109da604060016109e0946109b9600082016109b360008801610306565b9061032e565b6109d2600082016109cc60208801610306565b906106e3565b019201610703565b90610988565b565b906109ec91610994565b565b92610a26610aaf969593610a1f610a2d94610a18610a6998610a113360006101f7565b60016101f7565b60026101f7565b600261025a565b600061025a565b610a39600160026102ad565b610a62610a446102cd565b610a59610a4f6102d2565b93600085016102df565b602083016102ed565b600361067c565b610aa8610a74610688565b610a9f610a966000610a91610a8761068d565b96600088016102df565b61069d565b602085016102df565b604083016106b9565b60056109e2565b56fe60806040526004361015610013575b6106ad565b61001e6000356100fd565b80630397b652146100f85780630b97bc86146100f357806322f3e2d4146100ee5780632fd949ca146100e95780636e4c5a5b146100e45780638f5949f9146100df5780638f7dcfa3146100da5780638fda356d146100d5578063a0a1a7d7146100d0578063a5708f94146100cb578063ae200e79146100c6578063b2bf849a146100c1578063c24a0f8b146100bc5763cc81a3b30361000e57610677565b6105da565b610596565b61050f565b6104d6565b6104a1565b61045e565b610429565b61037b565b610352565b6102d6565b61029b565b610202565b610193565b60e01c90565b60405190565b600080fd5b600080fd5b600091031261011e57565b61010e565b60001c90565b65ffffffffffff1690565b61014061014591610123565b610129565b90565b6101529054610134565b90565b6101626000600301610148565b90565b65ffffffffffff1690565b61017990610165565b9052565b919061019190600060208501940190610170565b565b346101c3576101a3366004610113565b6101bf6101ae610155565b6101b6610103565b9182918261017d565b0390f35b610109565b1c90565b6101dc9060086101e193026101c8565b610129565b90565b906101ef91546101cc565b90565b6101ff60026014906101e4565b90565b3461023257610212366004610113565b61022e61021d6101f2565b610225610103565b9182918261017d565b0390f35b610109565b60ff1690565b61024d90600861025293026101c8565b610237565b90565b90610260915461023d565b90565b6102706002601a90610255565b90565b151590565b61028190610273565b9052565b919061029990600060208501940190610278565b565b346102cb576102ab366004610113565b6102c76102b6610263565b6102be610103565b91829182610285565b0390f35b610109565b60000190565b34610304576102e6366004610113565b6102ee610811565b6102f6610103565b80610300816102d0565b0390f35b610109565b60ff1690565b61031881610309565b0361031f57565b600080fd5b905035906103318261030f565b565b9060208282031261034d5761034a91600001610324565b90565b61010e565b610365610360366004610333565b610d0e565b61036d610103565b80610377816102d0565b0390f35b346103ab5761038b366004610113565b6103a7610396610d1e565b61039e610103565b91829182610285565b0390f35b610109565b60018060a01b031690565b6103cb9060086103d093026101c8565b6103b0565b90565b906103de91546103bb565b90565b6103ec6000806103d3565b90565b60018060a01b031690565b610403906103ef565b90565b61040f906103fa565b9052565b919061042790600060208501940190610406565b565b3461045957610439366004610113565b6104556104446103e1565b61044c610103565b91829182610413565b0390f35b610109565b3461048c5761046e366004610113565b610476610de3565b61047e610103565b80610488816102d0565b0390f35b610109565b61049e60026000906103d3565b90565b346104d1576104b1366004610113565b6104cd6104bc610491565b6104c4610103565b91829182610413565b0390f35b610109565b6104e1366004610113565b6104e9610f6a565b6104f1610103565b806104fb816102d0565b0390f35b61050c60016000906103d3565b90565b3461053f5761051f366004610113565b61053b61052a6104ff565b610532610103565b91829182610413565b0390f35b610109565b61054d81610165565b0361055457565b600080fd5b9050359061056682610544565b565b9190604083820312610591578061058561058e9260008601610559565b93602001610559565b90565b61010e565b346105c5576105af6105a9366004610568565b90611519565b6105b7610103565b806105c1816102d0565b0390f35b610109565b6105d760006014906101e4565b90565b3461060a576105ea366004610113565b6106066105f56105ca565b6105fd610103565b9182918261017d565b0390f35b610109565b60301c90565b6106216106269161060f565b610129565b90565b6106339054610615565b90565b6005906106506000610649818501610148565b9301610629565b90565b91602061067592949361066e60408201966000830190610170565b0190610170565b565b346106a857610687366004610113565b61068f610636565b906106a461069b610103565b92839283610653565b0390f35b610109565b600080fd5b6106be6106c391610123565b6103b0565b90565b6106d090546106b2565b90565b60209181520190565b60207f697320616374696f6e0000000000000000000000000000000000000000000000917f4f6e6c792074686520656d706c6f7965722063616e20706572666f726d20746860008201520152565b61073760296040926106d3565b610740816106dc565b0190565b61075a906020810190600081830391015261072a565b90565b1561076457565b61076c610103565b62461bcd60e51b81528061078260048201610744565b0390fd5b6107ab336107a561079f61079a60016106c6565b6103fa565b916103fa565b1461075d565b6107b3610803565b565b60d01b90565b906107ca60ff60d01b916107b5565b9181191691161790565b6107dd90610273565b90565b90565b906107f86107f36107ff926107d4565b6107e0565b82546107bb565b9055565b61080f600060026107e3565b565b610819610786565b565b610849906108443361083e61083861083360016106c6565b6103fa565b916103fa565b1461075d565b6108f6565b565b60d01c90565b61085d6108629161084b565b610237565b90565b61086f9054610851565b90565b60007f436f6e7472616374206973206e6f742061637469766500000000000000000000910152565b6108a760166020926106d3565b6108b081610872565b0190565b6108ca906020810190600081830391015261089a565b90565b156108d457565b6108dc610103565b62461bcd60e51b8152806108f2600482016108b4565b0390fd5b6109119061090c6109076002610865565b6108cd565b610c2a565b565b634e487b7160e01b600052603260045260246000fd5b5490565b600052602060002090565b61094181610929565b82101561095c5761095360039161092d565b91020190600090565b610913565b9061096b90610165565b9052565b90565b61097e61098391610123565b61096f565b90565b6109909054610972565b90565b90565b906109a090610993565b9052565b60ff1690565b6109b66109bb91610123565b6109a4565b90565b6109c890546109aa565b90565b634e487b7160e01b600052602160045260246000fd5b600311156109eb57565b6109cb565b906109fa826109e1565b565b90610a06906109f0565b9052565b601f801991011690565b634e487b7160e01b600052604160045260246000fd5b90610a3490610a0a565b810190811067ffffffffffffffff821117610a4e57604052565b610a14565b90610a66610a5f610103565b9283610a2a565b565b610a726080610a53565b90565b90610ade610ad56002610a86610a68565b94610a9f610a9660008301610148565b60008801610961565b610ab7610aae60008301610629565b60208801610961565b610acf610ac660018301610986565b60408801610996565b016109be565b606084016109fc565b565b610ae990610a75565b90565b610af690516109f0565b90565b60007f5369636b206c656176652077696c6c20626520696e2070656e64696e67000000910152565b610b2e601d6020926106d3565b610b3781610af9565b0190565b610b519060208101906000818303910152610b21565b90565b15610b5b57565b610b63610103565b62461bcd60e51b815280610b7960048201610b3b565b0390fd5b90565b610b94610b8f610b99926103ef565b610b7d565b6103ef565b90565b610ba590610b80565b90565b610bb190610b9c565b90565b610bbd90610b80565b90565b610bc990610bb4565b90565b610bd69051610993565b90565b610be1610103565b3d6000823e3d90fd5b610bf390610993565b9052565b604090610c21610c289496959396610c1760608401986000850190610406565b6020830190610406565b0190610bea565b565b610c3b610c41916001600501610938565b50610ae0565b610c69610c5060608301610aec565b610c63610c5d60006109f0565b916109f0565b14610b54565b6000808080610c88610c83610c7e60016106c6565b610ba8565b610bc0565b610c9460408701610bcc565b90828215610d05575bf115610d0057610cad60016106c6565b90610cc46040610cbd60026106c6565b9201610bcc565b91610cfb7f4777c503c13bce5021c03ce8ad65c9acc5614b088498ccdd4f4abdb5981698ff93610cf2610103565b93849384610bf7565b0390a1565b610bd9565b506108fc610c9d565b610d179061081b565b565b600090565b610d26610d19565b50610d316002610865565b90565b610d3d90610bb4565b90565b90565b610d57610d52610d5c92610d40565b610b7d565b610993565b90565b60007f496e73756666696369656e742062616c616e6365000000000000000000000000910152565b610d9460146020926106d3565b610d9d81610d5f565b0190565b610db79060208101906000818303910152610d87565b90565b15610dc157565b610dc9610103565b62461bcd60e51b815280610ddf60048201610da1565b0390fd5b610e0a610def30610d34565b31610e03610dfd60c8610d43565b91610993565b1015610dba565b610e16600160026107e3565b565b610e3d33610e37610e31610e2c60016106c6565b6103fa565b916103fa565b1461075d565b610e45610e47565b565b610e59610e546002610865565b6108cd565b610e61610f03565b565b610e77610e72610e7c92610165565b610b7d565b610993565b90565b60007f496e636f72726563742073616c61727920616d6f756e74000000000000000000910152565b610eb460176020926106d3565b610ebd81610e7f565b0190565b610ed79060208101906000818303910152610ea7565b90565b15610ee157565b610ee9610103565b62461bcd60e51b815280610eff60048201610ec1565b0390fd5b610f2b34610f25610f1f610f1a6000600301610148565b610e63565b91610993565b14610eda565b6000808080610f4a610f45610f4060026106c6565b610ba8565b610bc0565b3490828215610f61575bf115610f5c57565b610bd9565b506108fc610f54565b610f72610e18565b565b634e487b7160e01b600052601160045260246000fd5b610f96610f9c91610165565b91610165565b90039065ffffffffffff8211610fae57565b610f74565b90565b610fca610fc5610fcf92610fb3565b610b7d565b610165565b90565b634e487b7160e01b600052601260045260246000fd5b610ff4610ffa91610165565b91610165565b908115611005570490565b610fd2565b60207f636b206c65617665000000000000000000000000000000000000000000000000917f4f6e6c792074686520656d706c6f7965652063616e207265717565737420736960008201520152565b61106560286040926106d3565b61106e8161100a565b0190565b6110889060208101906000818303910152611058565b90565b1561109257565b61109a610103565b62461bcd60e51b8152806110b060048201611072565b0390fd5b60007f5374617274446174652073686f756c6420626520696e20666561747572650000910152565b6110e9601e6020926106d3565b6110f2816110b4565b0190565b61110c90602081019060008183039101526110dc565b90565b1561111657565b61111e610103565b62461bcd60e51b815280611134600482016110f6565b0390fd5b60207f7461727444617465000000000000000000000000000000000000000000000000917f456e64446174652073686f756c642062652067726561746572207468616e205360008201520152565b61119360286040926106d3565b61119c81611138565b0190565b6111b69060208101906000818303910152611186565b90565b156111c057565b6111c8610103565b62461bcd60e51b8152806111de600482016111a0565b0390fd5b60007f457863656564696e67207369636b206c65617665206461797300000000000000910152565b61121760196020926106d3565b611220816111e2565b0190565b61123a906020810190600081830391015261120a565b90565b1561124457565b61124c610103565b62461bcd60e51b81528061126260048201611224565b0390fd5b90565b61127d61127861128292611266565b610b7d565b610993565b90565b61129461129a91939293610993565b92610993565b916112a6838202610993565b9281840414901517156112b557565b610f74565b6112c46080610a53565b90565b90565b600052602060002090565b5490565b6112e2816112d5565b8210156112fd576112f46003916112ca565b91020190600090565b610913565b634e487b7160e01b600052600060045260246000fd5b6113229051610165565b90565b60001b90565b9061133c65ffffffffffff91611325565b9181191691161790565b61135a61135561135f92610165565b610b7d565b610165565b90565b90565b9061137a61137561138192611346565b611362565b825461132b565b9055565b60301b90565b906113a26bffffffffffff00000000000091611385565b9181191691161790565b906113c16113bc6113c892611346565b611362565b825461138b565b9055565b906113d960001991611325565b9181191691161790565b6113f76113f26113fc92610993565b610b7d565b610993565b90565b90565b9061141761141261141e926113e3565b6113ff565b82546113cc565b9055565b9061142e60ff91611325565b9181191691161790565b611441906109f0565b90565b90565b9061145c61145761146392611438565b611444565b8254611422565b9055565b906114c6606060026114cc9461148c6000820161148660008801611318565b90611365565b6114a56000820161149f60208801611318565b906113ac565b6114be600182016114b860408801610bcc565b90611402565b019201610aec565b90611447565b565b91906114df576114dd91611467565b565b611302565b9081549168010000000000000000831015611514578261150c916001611512950181556112d9565b906114ce565b565b610a14565b9061163d61164f9261163461160761154f61154a611538878690610f8a565b61154462015180610fb6565b90610fe8565b610e63565b926115f661157e6115796115666000600501610148565b6115736000600501610629565b90610f8a565b610e63565b6115a33361159d61159761159260026106c6565b6103fa565b916103fa565b1461108b565b6115c0426115b96115b386610e63565b91610993565b111561110f565b6115dc886115d66115d086610165565b91610165565b116111b9565b6115ef6115e98792610993565b91610993565b111561123d565b94926116026001611269565b611285565b61162b6000936116226116186112ba565b9760008901610961565b60208701610961565b60408501610996565b606083016109fc565b61164a60016005016112c7565b6114e4565b56fea264697066735822122028f93f27dd85ff97680089fbbd6ada7e4cf2a5f7421ce0e4f5123cd67b3e3e7764736f6c634300081c0033","opcodes":"PUSH1 0x80 PUSH1 0x40 MSTORE CALLVALUE PUSH2 0x36 JUMPI PUSH2 0x20 PUSH2 0x14 PUSH2 0x176 JUMP JUMPDEST SWAP5 SWAP4 SWAP1 SWAP4 SWAP3 SWAP2 SWAP3 PUSH2 0x9EE JUMP JUMPDEST PUSH2 0x28 PUSH2 0x3B JUMP JUMPDEST PUSH2 0x1687 PUSH2 0xAB2 DUP3 CODECOPY PUSH2 0x1687 SWAP1 RETURN JUMPDEST PUSH2 0x41 JUMP JUMPDEST PUSH1 0x40 MLOAD SWAP1 JUMP JUMPDEST PUSH1 0x0 DUP1 REVERT JUMPDEST PUSH1 0x1F DUP1 NOT SWAP2 ADD AND SWAP1 JUMP JUMPDEST PUSH4 0x4E487B71 PUSH1 0xE0 SHL PUSH1 0x0 MSTORE PUSH1 0x41 PUSH1 0x4 MSTORE PUSH1 0x24 PUSH1 0x0 REVERT JUMPDEST SWAP1 PUSH2 0x70 SWAP1 PUSH2 0x46 JUMP JUMPDEST DUP2 ADD SWAP1 DUP2 LT PUSH1 0x1 DUP1 PUSH1 0x40 SHL SUB DUP3 GT OR PUSH2 0x88 JUMPI PUSH1 0x40 MSTORE JUMP JUMPDEST PUSH2 0x50 JUMP JUMPDEST SWAP1 PUSH2 0xA0 PUSH2 0x99 PUSH2 0x3B JUMP JUMPDEST SWAP3 DUP4 PUSH2 0x66 JUMP JUMPDEST JUMP JUMPDEST PUSH1 0x0 DUP1 REVERT JUMPDEST PUSH1 0x1 DUP1 PUSH1 0xA0 SHL SUB AND SWAP1 JUMP JUMPDEST PUSH2 0xBB SWAP1 PUSH2 0xA7 JUMP JUMPDEST SWAP1 JUMP JUMPDEST PUSH2 0xC7 DUP2 PUSH2 0xB2 JUMP JUMPDEST SUB PUSH2 0xCE JUMPI JUMP JUMPDEST PUSH1 0x0 DUP1 REVERT JUMPDEST SWAP1 POP MLOAD SWAP1 PUSH2 0xE0 DUP3 PUSH2 0xBE JUMP JUMPDEST JUMP JUMPDEST PUSH6 0xFFFFFFFFFFFF AND SWAP1 JUMP JUMPDEST PUSH2 0xF6 DUP2 PUSH2 0xE2 JUMP JUMPDEST SUB PUSH2 0xFD JUMPI JUMP JUMPDEST PUSH1 0x0 DUP1 REVERT JUMPDEST SWAP1 POP MLOAD SWAP1 PUSH2 0x10F DUP3 PUSH2 0xED JUMP JUMPDEST JUMP JUMPDEST SWAP1 SWAP2 PUSH1 0xC0 DUP3 DUP5 SUB SLT PUSH2 0x171 JUMPI PUSH2 0x12A DUP4 PUSH1 0x0 DUP5 ADD PUSH2 0xD3 JUMP JUMPDEST SWAP3 PUSH2 0x138 DUP2 PUSH1 0x20 DUP6 ADD PUSH2 0xD3 JUMP JUMPDEST SWAP3 PUSH2 0x146 DUP3 PUSH1 0x40 DUP4 ADD PUSH2 0x102 JUMP JUMPDEST SWAP3 PUSH2 0x16E PUSH2 0x157 DUP5 PUSH1 0x60 DUP6 ADD PUSH2 0x102 JUMP JUMPDEST SWAP4 PUSH2 0x165 DUP2 PUSH1 0x80 DUP7 ADD PUSH2 0x102 JUMP JUMPDEST SWAP4 PUSH1 0xA0 ADD PUSH2 0x102 JUMP JUMPDEST SWAP1 JUMP JUMPDEST PUSH2 0xA2 JUMP JUMPDEST PUSH2 0x194 PUSH2 0x2139 DUP1 CODESIZE SUB DUP1 PUSH2 0x189 DUP2 PUSH2 0x8D JUMP JUMPDEST SWAP3 DUP4 CODECOPY DUP2 ADD SWAP1 PUSH2 0x111 JUMP JUMPDEST SWAP1 SWAP2 SWAP3 SWAP4 SWAP5 SWAP6 JUMP JUMPDEST PUSH1 0x0 SHL SWAP1 JUMP JUMPDEST SWAP1 PUSH2 0x1B3 PUSH1 0x1 DUP1 PUSH1 0xA0 SHL SUB SWAP2 PUSH2 0x19C JUMP JUMPDEST SWAP2 DUP2 NOT AND SWAP2 AND OR SWAP1 JUMP JUMPDEST SWAP1 JUMP JUMPDEST PUSH2 0x1D4 PUSH2 0x1CF PUSH2 0x1D9 SWAP3 PUSH2 0xA7 JUMP JUMPDEST PUSH2 0x1BD JUMP JUMPDEST PUSH2 0xA7 JUMP JUMPDEST SWAP1 JUMP JUMPDEST PUSH2 0x1E5 SWAP1 PUSH2 0x1C0 JUMP JUMPDEST SWAP1 JUMP JUMPDEST PUSH2 0x1F1 SWAP1 PUSH2 0x1DC JUMP JUMPDEST SWAP1 JUMP JUMPDEST SWAP1 JUMP JUMPDEST SWAP1 PUSH2 0x20C PUSH2 0x207 PUSH2 0x213 SWAP3 PUSH2 0x1E8 JUMP JUMPDEST PUSH2 0x1F4 JUMP JUMPDEST DUP3 SLOAD PUSH2 0x1A2 JUMP JUMPDEST SWAP1 SSTORE JUMP JUMPDEST PUSH1 0xA0 SHL SWAP1 JUMP JUMPDEST SWAP1 PUSH2 0x231 PUSH6 0xFFFFFFFFFFFF PUSH1 0xA0 SHL SWAP2 PUSH2 0x217 JUMP JUMPDEST SWAP2 DUP2 NOT AND SWAP2 AND OR SWAP1 JUMP JUMPDEST PUSH2 0x24F PUSH2 0x24A PUSH2 0x254 SWAP3 PUSH2 0xE2 JUMP JUMPDEST PUSH2 0x1BD JUMP JUMPDEST PUSH2 0xE2 JUMP JUMPDEST SWAP1 JUMP JUMPDEST SWAP1 JUMP JUMPDEST SWAP1 PUSH2 0x26F PUSH2 0x26A PUSH2 0x276 SWAP3 PUSH2 0x23B JUMP JUMPDEST PUSH2 0x257 JUMP JUMPDEST DUP3 SLOAD PUSH2 0x21D JUMP JUMPDEST SWAP1 SSTORE JUMP JUMPDEST PUSH1 0xD0 SHL SWAP1 JUMP JUMPDEST SWAP1 PUSH2 0x28F PUSH1 0xFF PUSH1 0xD0 SHL SWAP2 PUSH2 0x27A JUMP JUMPDEST SWAP2 DUP2 NOT AND SWAP2 AND OR SWAP1 JUMP JUMPDEST ISZERO ISZERO SWAP1 JUMP JUMPDEST PUSH2 0x2A7 SWAP1 PUSH2 0x299 JUMP JUMPDEST SWAP1 JUMP JUMPDEST SWAP1 JUMP JUMPDEST SWAP1 PUSH2 0x2C2 PUSH2 0x2BD PUSH2 0x2C9 SWAP3 PUSH2 0x29E JUMP JUMPDEST PUSH2 0x2AA JUMP JUMPDEST DUP3 SLOAD PUSH2 0x280 JUMP JUMPDEST SWAP1 SSTORE JUMP JUMPDEST PUSH1 0x60 SWAP1 JUMP JUMPDEST PUSH2 0x2DC PUSH1 0x40 PUSH2 0x8D JUMP JUMPDEST SWAP1 JUMP JUMPDEST SWAP1 PUSH2 0x2E9 SWAP1 PUSH2 0xE2 JUMP JUMPDEST SWAP1 MSTORE JUMP JUMPDEST MSTORE JUMP JUMPDEST PUSH4 0x4E487B71 PUSH1 0xE0 SHL PUSH1 0x0 MSTORE PUSH1 0x0 PUSH1 0x4 MSTORE PUSH1 0x24 PUSH1 0x0 REVERT JUMPDEST PUSH2 0x310 SWAP1 MLOAD PUSH2 0xE2 JUMP JUMPDEST SWAP1 JUMP JUMPDEST SWAP1 PUSH2 0x324 PUSH6 0xFFFFFFFFFFFF SWAP2 PUSH2 0x19C JUMP JUMPDEST SWAP2 DUP2 NOT AND SWAP2 AND OR SWAP1 JUMP JUMPDEST SWAP1 PUSH2 0x343 PUSH2 0x33E PUSH2 0x34A SWAP3 PUSH2 0x23B JUMP JUMPDEST PUSH2 0x257 JUMP JUMPDEST DUP3 SLOAD PUSH2 0x313 JUMP JUMPDEST SWAP1 SSTORE JUMP JUMPDEST MLOAD SWAP1 JUMP JUMPDEST SLOAD SWAP1 JUMP JUMPDEST SWAP1 JUMP JUMPDEST PUSH4 0x4E487B71 PUSH1 0xE0 SHL PUSH1 0x0 MSTORE PUSH1 0x11 PUSH1 0x4 MSTORE PUSH1 0x24 PUSH1 0x0 REVERT JUMPDEST PUSH2 0x37E PUSH2 0x384 SWAP2 SWAP4 SWAP3 SWAP4 PUSH2 0x356 JUMP JUMPDEST SWAP3 PUSH2 0x356 JUMP JUMPDEST SWAP2 PUSH2 0x390 DUP4 DUP3 MUL PUSH2 0x356 JUMP JUMPDEST SWAP3 DUP2 DUP5 DIV EQ SWAP1 ISZERO OR ISZERO PUSH2 0x39F JUMPI JUMP JUMPDEST PUSH2 0x359 JUMP JUMPDEST PUSH1 0x5 SWAP1 PUSH1 0x1 DUP3 SUB ADD DIV SWAP1 JUMP JUMPDEST PUSH1 0x0 MSTORE PUSH1 0x20 PUSH1 0x0 KECCAK256 SWAP1 JUMP JUMPDEST SHL SWAP1 JUMP JUMPDEST SWAP2 SWAP1 PUSH1 0x8 PUSH2 0x3DB SWAP2 MUL SWAP2 PUSH2 0x3D5 PUSH1 0x0 NOT DUP5 PUSH2 0x3BB JUMP JUMPDEST SWAP3 PUSH2 0x3BB JUMP JUMPDEST SWAP2 DUP2 NOT AND SWAP2 AND OR SWAP1 JUMP JUMPDEST PUSH2 0x3F9 PUSH2 0x3F4 PUSH2 0x3FE SWAP3 PUSH2 0x356 JUMP JUMPDEST PUSH2 0x1BD JUMP JUMPDEST PUSH2 0x356 JUMP JUMPDEST SWAP1 JUMP JUMPDEST SWAP1 JUMP JUMPDEST SWAP2 SWAP1 PUSH2 0x41A PUSH2 0x415 PUSH2 0x422 SWAP4 PUSH2 0x3E5 JUMP JUMPDEST PUSH2 0x401 JUMP JUMPDEST SWAP1 DUP4 SLOAD PUSH2 0x3BF JUMP JUMPDEST SWAP1 SSTORE JUMP JUMPDEST PUSH1 0x0 SWAP1 JUMP JUMPDEST PUSH2 0x43D SWAP2 PUSH2 0x437 PUSH2 0x426 JUMP JUMPDEST SWAP2 PUSH2 0x404 JUMP JUMPDEST JUMP JUMPDEST JUMPDEST DUP2 DUP2 LT PUSH2 0x44B JUMPI POP POP JUMP JUMPDEST DUP1 PUSH2 0x459 PUSH1 0x0 PUSH1 0x1 SWAP4 PUSH2 0x42B JUMP JUMPDEST ADD PUSH2 0x440 JUMP JUMPDEST SHR SWAP1 JUMP JUMPDEST SWAP1 PUSH2 0x477 SWAP1 PUSH1 0x0 NOT SWAP1 PUSH1 0x20 SUB PUSH1 0x8 MUL PUSH2 0x45F JUMP JUMPDEST DUP2 SLOAD AND SWAP1 SSTORE JUMP JUMPDEST SWAP2 SWAP1 SWAP2 DUP3 DUP3 LT PUSH2 0x48E JUMPI JUMPDEST POP POP POP JUMP JUMPDEST PUSH1 0x6 PUSH1 0x5 PUSH2 0x49E PUSH2 0x4C7 SWAP6 PUSH2 0x3A4 JUMP JUMPDEST PUSH2 0x4B0 PUSH2 0x4AA DUP7 PUSH2 0x3A4 JUMP JUMPDEST SWAP5 PUSH2 0x3B0 JUMP JUMPDEST SWAP4 DUP5 ADD SWAP4 ADD SWAP4 MOD MUL PUSH1 0x0 DUP2 GT PUSH2 0x4CF JUMPI JUMPDEST POP PUSH2 0x43F JUMP JUMPDEST CODESIZE DUP1 DUP1 PUSH2 0x489 JUMP JUMPDEST PUSH2 0x4DC SWAP1 PUSH1 0x1 DUP4 SUB PUSH2 0x463 JUMP JUMPDEST CODESIZE PUSH2 0x4C1 JUMP JUMPDEST SWAP1 PUSH9 0x10000000000000000 DUP2 GT PUSH2 0x50B JUMPI DUP2 PUSH2 0x500 PUSH2 0x509 SWAP4 PUSH2 0x352 JUMP JUMPDEST SWAP1 DUP3 DUP2 SSTORE PUSH2 0x47E JUMP JUMPDEST JUMP JUMPDEST PUSH2 0x50 JUMP JUMPDEST MLOAD SWAP1 JUMP JUMPDEST PUSH1 0x20 ADD SWAP1 JUMP JUMPDEST SWAP2 SWAP1 PUSH1 0x8 PUSH2 0x53A SWAP2 MUL SWAP2 PUSH2 0x534 PUSH6 0xFFFFFFFFFFFF DUP5 PUSH2 0x3BB JUMP JUMPDEST SWAP3 PUSH2 0x3BB JUMP JUMPDEST SWAP2 DUP2 NOT AND SWAP2 AND OR SWAP1 JUMP JUMPDEST SWAP1 PUSH2 0x54E DUP2 PUSH2 0x510 JUMP JUMPDEST SWAP1 PUSH1 0x1 DUP1 PUSH1 0x40 SHL SUB DUP3 GT PUSH2 0x636 JUMPI PUSH2 0x572 PUSH2 0x578 SWAP2 PUSH2 0x56D DUP5 DUP7 PUSH2 0x4E2 JUMP JUMPDEST PUSH2 0x514 JUMP JUMPDEST SWAP3 PUSH2 0x3B0 JUMP JUMPDEST PUSH1 0x5 DUP3 DIV SWAP2 PUSH1 0x0 JUMPDEST DUP4 DUP2 LT PUSH2 0x5EC JUMPI POP PUSH1 0x5 DUP4 MUL SWAP1 SUB PUSH1 0x0 DUP2 GT PUSH2 0x59D JUMPI JUMPDEST POP POP POP POP JUMP JUMPDEST SWAP3 PUSH1 0x0 SWAP4 PUSH1 0x0 JUMPDEST DUP2 DUP2 LT PUSH2 0x5B9 JUMPI POP POP POP ADD SSTORE CODESIZE DUP1 DUP1 DUP1 PUSH2 0x597 JUMP JUMPDEST SWAP1 SWAP2 SWAP5 PUSH1 0x20 PUSH2 0x5E0 PUSH1 0x1 SWAP3 PUSH2 0x5D5 PUSH2 0x5D0 DUP11 PUSH2 0x306 JUMP JUMPDEST PUSH2 0x257 JUMP JUMPDEST SWAP1 DUP6 PUSH1 0x6 MUL SWAP1 PUSH2 0x51A JUMP JUMPDEST SWAP7 ADD SWAP2 ADD SWAP2 SWAP1 SWAP2 PUSH2 0x5A4 JUMP JUMPDEST PUSH1 0x0 DUP1 JUMPDEST PUSH1 0x5 DUP2 LT PUSH2 0x607 JUMPI POP SWAP1 PUSH1 0x1 SWAP2 DUP2 DUP6 ADD SSTORE ADD PUSH2 0x580 JUMP JUMPDEST SWAP6 SWAP1 PUSH1 0x20 PUSH2 0x62D PUSH1 0x1 SWAP3 PUSH2 0x622 PUSH2 0x61D DUP7 PUSH2 0x306 JUMP JUMPDEST PUSH2 0x257 JUMP JUMPDEST SWAP1 DUP11 PUSH1 0x6 MUL SWAP1 PUSH2 0x51A JUMP JUMPDEST SWAP3 ADD SWAP7 ADD PUSH2 0x5F0 JUMP JUMPDEST PUSH2 0x50 JUMP JUMPDEST SWAP1 PUSH2 0x645 SWAP2 PUSH2 0x544 JUMP JUMPDEST JUMP JUMPDEST SWAP1 PUSH2 0x674 PUSH1 0x20 PUSH1 0x1 PUSH2 0x67A SWAP5 PUSH2 0x66C PUSH1 0x0 DUP3 ADD PUSH2 0x666 PUSH1 0x0 DUP9 ADD PUSH2 0x306 JUMP JUMPDEST SWAP1 PUSH2 0x32E JUMP JUMPDEST ADD SWAP3 ADD PUSH2 0x34E JUMP JUMPDEST SWAP1 PUSH2 0x63B JUMP JUMPDEST JUMP JUMPDEST SWAP1 PUSH2 0x686 SWAP2 PUSH2 0x647 JUMP JUMPDEST JUMP JUMPDEST PUSH1 0x60 SWAP1 JUMP JUMPDEST PUSH2 0x697 PUSH1 0x60 PUSH2 0x8D JUMP JUMPDEST SWAP1 JUMP JUMPDEST SWAP1 JUMP JUMPDEST PUSH2 0x6B1 PUSH2 0x6AC PUSH2 0x6B6 SWAP3 PUSH2 0x69A JUMP JUMPDEST PUSH2 0x1BD JUMP JUMPDEST PUSH2 0xE2 JUMP JUMPDEST SWAP1 JUMP JUMPDEST MSTORE JUMP JUMPDEST PUSH1 0x30 SHL SWAP1 JUMP JUMPDEST SWAP1 PUSH2 0x6D9 PUSH12 0xFFFFFFFFFFFF000000000000 SWAP2 PUSH2 0x6BC JUMP JUMPDEST SWAP2 DUP2 NOT AND SWAP2 AND OR SWAP1 JUMP JUMPDEST SWAP1 PUSH2 0x6F8 PUSH2 0x6F3 PUSH2 0x6FF SWAP3 PUSH2 0x23B JUMP JUMPDEST PUSH2 0x257 JUMP JUMPDEST DUP3 SLOAD PUSH2 0x6C2 JUMP JUMPDEST SWAP1 SSTORE JUMP JUMPDEST MLOAD SWAP1 JUMP JUMPDEST PUSH1 0x20 ADD SWAP1 JUMP JUMPDEST SLOAD SWAP1 JUMP JUMPDEST PUSH2 0x71C SWAP1 PUSH1 0x3 PUSH2 0x36F JUMP JUMPDEST SWAP1 JUMP JUMPDEST PUSH1 0x0 MSTORE PUSH1 0x20 PUSH1 0x0 KECCAK256 SWAP1 JUMP JUMPDEST PUSH1 0x2 PUSH1 0x0 SWAP2 DUP3 DUP1 DUP3 ADD SSTORE PUSH2 0x741 DUP4 PUSH1 0x1 DUP4 ADD PUSH2 0x42B JUMP JUMPDEST ADD SSTORE JUMP JUMPDEST SWAP1 PUSH1 0x0 SUB PUSH2 0x758 JUMPI PUSH2 0x756 SWAP1 PUSH2 0x72A JUMP JUMPDEST JUMP JUMPDEST PUSH2 0x2F0 JUMP JUMPDEST JUMPDEST DUP2 DUP2 LT PUSH2 0x769 JUMPI POP POP JUMP JUMPDEST DUP1 PUSH2 0x777 PUSH1 0x0 PUSH1 0x3 SWAP4 PUSH2 0x745 JUMP JUMPDEST ADD PUSH2 0x75E JUMP JUMPDEST SWAP1 SWAP2 DUP3 DUP2 LT PUSH2 0x78C JUMPI JUMPDEST POP POP POP JUMP JUMPDEST PUSH2 0x7AA PUSH2 0x7A4 PUSH2 0x79E PUSH2 0x7B5 SWAP6 PUSH2 0x711 JUMP JUMPDEST SWAP3 PUSH2 0x711 JUMP JUMPDEST SWAP3 PUSH2 0x71F JUMP JUMPDEST SWAP2 DUP3 ADD SWAP2 ADD SWAP1 PUSH2 0x75D JUMP JUMPDEST CODESIZE DUP1 DUP1 PUSH2 0x787 JUMP JUMPDEST SWAP1 PUSH9 0x10000000000000000 DUP2 GT PUSH2 0x7E6 JUMPI DUP2 PUSH2 0x7DB PUSH2 0x7E4 SWAP4 PUSH2 0x70D JUMP JUMPDEST SWAP1 DUP3 DUP2 SSTORE PUSH2 0x77D JUMP JUMPDEST JUMP JUMPDEST PUSH2 0x50 JUMP JUMPDEST MLOAD SWAP1 JUMP JUMPDEST MLOAD SWAP1 JUMP JUMPDEST PUSH2 0x7FD SWAP1 MLOAD PUSH2 0x356 JUMP JUMPDEST SWAP1 JUMP JUMPDEST SWAP1 PUSH2 0x80D PUSH1 0x0 NOT SWAP2 PUSH2 0x19C JUMP JUMPDEST SWAP2 DUP2 NOT AND SWAP2 AND OR SWAP1 JUMP JUMPDEST SWAP1 PUSH2 0x82C PUSH2 0x827 PUSH2 0x833 SWAP3 PUSH2 0x3E5 JUMP JUMPDEST PUSH2 0x401 JUMP JUMPDEST DUP3 SLOAD PUSH2 0x800 JUMP JUMPDEST SWAP1 SSTORE JUMP JUMPDEST PUSH4 0x4E487B71 PUSH1 0xE0 SHL PUSH1 0x0 MSTORE PUSH1 0x21 PUSH1 0x4 MSTORE PUSH1 0x24 PUSH1 0x0 REVERT JUMPDEST PUSH1 0x3 GT ISZERO PUSH2 0x857 JUMPI JUMP JUMPDEST PUSH2 0x837 JUMP JUMPDEST SWAP1 PUSH2 0x866 DUP3 PUSH2 0x84D JUMP JUMPDEST JUMP JUMPDEST PUSH2 0x872 SWAP1 MLOAD PUSH2 0x85C JUMP JUMPDEST SWAP1 JUMP JUMPDEST SWAP1 PUSH2 0x881 PUSH1 0xFF SWAP2 PUSH2 0x19C JUMP JUMPDEST SWAP2 DUP2 NOT AND SWAP2 AND OR SWAP1 JUMP JUMPDEST PUSH2 0x894 SWAP1 PUSH2 0x85C JUMP JUMPDEST SWAP1 JUMP JUMPDEST SWAP1 JUMP JUMPDEST SWAP1 PUSH2 0x8AF PUSH2 0x8AA PUSH2 0x8B6 SWAP3 PUSH2 0x88B JUMP JUMPDEST PUSH2 0x897 JUMP JUMPDEST DUP3 SLOAD PUSH2 0x875 JUMP JUMPDEST SWAP1 SSTORE JUMP JUMPDEST SWAP1 PUSH2 0x919 PUSH1 0x60 PUSH1 0x2 PUSH2 0x91F SWAP5 PUSH2 0x8DF PUSH1 0x0 DUP3 ADD PUSH2 0x8D9 PUSH1 0x0 DUP9 ADD PUSH2 0x306 JUMP JUMPDEST SWAP1 PUSH2 0x32E JUMP JUMPDEST PUSH2 0x8F8 PUSH1 0x0 DUP3 ADD PUSH2 0x8F2 PUSH1 0x20 DUP9 ADD PUSH2 0x306 JUMP JUMPDEST SWAP1 PUSH2 0x6E3 JUMP JUMPDEST PUSH2 0x911 PUSH1 0x1 DUP3 ADD PUSH2 0x90B PUSH1 0x40 DUP9 ADD PUSH2 0x7F3 JUMP JUMPDEST SWAP1 PUSH2 0x817 JUMP JUMPDEST ADD SWAP3 ADD PUSH2 0x868 JUMP JUMPDEST SWAP1 PUSH2 0x89A JUMP JUMPDEST JUMP JUMPDEST SWAP1 PUSH2 0x92B SWAP2 PUSH2 0x8BA JUMP JUMPDEST JUMP JUMPDEST PUSH2 0x952 PUSH2 0x94C PUSH2 0x93C DUP5 PUSH2 0x7EB JUMP JUMPDEST SWAP4 PUSH2 0x947 DUP6 DUP6 PUSH2 0x7BD JUMP JUMPDEST PUSH2 0x707 JUMP JUMPDEST SWAP2 PUSH2 0x71F JUMP JUMPDEST PUSH1 0x0 SWAP2 JUMPDEST DUP4 DUP4 LT PUSH2 0x963 JUMPI POP POP POP POP JUMP JUMPDEST PUSH1 0x3 PUSH1 0x20 DUP3 PUSH2 0x97C PUSH2 0x976 PUSH1 0x1 SWAP6 PUSH2 0x7EF JUMP JUMPDEST DUP7 PUSH2 0x921 JUMP JUMPDEST ADD SWAP3 ADD SWAP3 ADD SWAP2 SWAP1 PUSH2 0x956 JUMP JUMPDEST SWAP1 PUSH2 0x992 SWAP2 PUSH2 0x92D JUMP JUMPDEST JUMP JUMPDEST SWAP1 PUSH2 0x9DA PUSH1 0x40 PUSH1 0x1 PUSH2 0x9E0 SWAP5 PUSH2 0x9B9 PUSH1 0x0 DUP3 ADD PUSH2 0x9B3 PUSH1 0x0 DUP9 ADD PUSH2 0x306 JUMP JUMPDEST SWAP1 PUSH2 0x32E JUMP JUMPDEST PUSH2 0x9D2 PUSH1 0x0 DUP3 ADD PUSH2 0x9CC PUSH1 0x20 DUP9 ADD PUSH2 0x306 JUMP JUMPDEST SWAP1 PUSH2 0x6E3 JUMP JUMPDEST ADD SWAP3 ADD PUSH2 0x703 JUMP JUMPDEST SWAP1 PUSH2 0x988 JUMP JUMPDEST JUMP JUMPDEST SWAP1 PUSH2 0x9EC SWAP2 PUSH2 0x994 JUMP JUMPDEST JUMP JUMPDEST SWAP3 PUSH2 0xA26 PUSH2 0xAAF SWAP7 SWAP6 SWAP4 PUSH2 0xA1F PUSH2 0xA2D SWAP5 PUSH2 0xA18 PUSH2 0xA69 SWAP9 PUSH2 0xA11 CALLER PUSH1 0x0 PUSH2 0x1F7 JUMP JUMPDEST PUSH1 0x1 PUSH2 0x1F7 JUMP JUMPDEST PUSH1 0x2 PUSH2 0x1F7 JUMP JUMPDEST PUSH1 0x2 PUSH2 0x25A JUMP JUMPDEST PUSH1 0x0 PUSH2 0x25A JUMP JUMPDEST PUSH2 0xA39 PUSH1 0x1 PUSH1 0x2 PUSH2 0x2AD JUMP JUMPDEST PUSH2 0xA62 PUSH2 0xA44 PUSH2 0x2CD JUMP JUMPDEST PUSH2 0xA59 PUSH2 0xA4F PUSH2 0x2D2 JUMP JUMPDEST SWAP4 PUSH1 0x0 DUP6 ADD PUSH2 0x2DF JUMP JUMPDEST PUSH1 0x20 DUP4 ADD PUSH2 0x2ED JUMP JUMPDEST PUSH1 0x3 PUSH2 0x67C JUMP JUMPDEST PUSH2 0xAA8 PUSH2 0xA74 PUSH2 0x688 JUMP JUMPDEST PUSH2 0xA9F PUSH2 0xA96 PUSH1 0x0 PUSH2 0xA91 PUSH2 0xA87 PUSH2 0x68D JUMP JUMPDEST SWAP7 PUSH1 0x0 DUP9 ADD PUSH2 0x2DF JUMP JUMPDEST PUSH2 0x69D JUMP JUMPDEST PUSH1 0x20 DUP6 ADD PUSH2 0x2DF JUMP JUMPDEST PUSH1 0x40 DUP4 ADD PUSH2 0x6B9 JUMP JUMPDEST PUSH1 0x5 PUSH2 0x9E2 JUMP JUMPDEST JUMP INVALID PUSH1 0x80 PUSH1 0x40 MSTORE PUSH1 0x4 CALLDATASIZE LT ISZERO PUSH2 0x13 JUMPI JUMPDEST PUSH2 0x6AD JUMP JUMPDEST PUSH2 0x1E PUSH1 0x0 CALLDATALOAD PUSH2 0xFD JUMP JUMPDEST DUP1 PUSH4 0x397B652 EQ PUSH2 0xF8 JUMPI DUP1 PUSH4 0xB97BC86 EQ PUSH2 0xF3 JUMPI DUP1 PUSH4 0x22F3E2D4 EQ PUSH2 0xEE JUMPI DUP1 PUSH4 0x2FD949CA EQ PUSH2 0xE9 JUMPI DUP1 PUSH4 0x6E4C5A5B EQ PUSH2 0xE4 JUMPI DUP1 PUSH4 0x8F5949F9 EQ PUSH2 0xDF JUMPI DUP1 PUSH4 0x8F7DCFA3 EQ PUSH2 0xDA JUMPI DUP1 PUSH4 0x8FDA356D EQ PUSH2 0xD5 JUMPI DUP1 PUSH4 0xA0A1A7D7 EQ PUSH2 0xD0 JUMPI DUP1 PUSH4 0xA5708F94 EQ PUSH2 0xCB JUMPI DUP1 PUSH4 0xAE200E79 EQ PUSH2 0xC6 JUMPI DUP1 PUSH4 0xB2BF849A EQ PUSH2 0xC1 JUMPI DUP1 PUSH4 0xC24A0F8B EQ PUSH2 0xBC JUMPI PUSH4 0xCC81A3B3 SUB PUSH2 0xE JUMPI PUSH2 0x677 JUMP JUMPDEST PUSH2 0x5DA JUMP JUMPDEST PUSH2 0x596 JUMP JUMPDEST PUSH2 0x50F JUMP JUMPDEST PUSH2 0x4D6 JUMP JUMPDEST PUSH2 0x4A1 JUMP JUMPDEST PUSH2 0x45E JUMP JUMPDEST PUSH2 0x429 JUMP JUMPDEST PUSH2 0x37B JUMP JUMPDEST PUSH2 0x352 JUMP JUMPDEST PUSH2 0x2D6 JUMP JUMPDEST PUSH2 0x29B JUMP JUMPDEST PUSH2 0x202 JUMP JUMPDEST PUSH2 0x193 JUMP JUMPDEST PUSH1 0xE0 SHR SWAP1 JUMP JUMPDEST PUSH1 0x40 MLOAD SWAP1 JUMP JUMPDEST PUSH1 0x0 DUP1 REVERT JUMPDEST PUSH1 0x0 DUP1 REVERT JUMPDEST PUSH1 0x0 SWAP2 SUB SLT PUSH2 0x11E JUMPI JUMP JUMPDEST PUSH2 0x10E JUMP JUMPDEST PUSH1 0x0 SHR SWAP1 JUMP JUMPDEST PUSH6 0xFFFFFFFFFFFF AND SWAP1 JUMP JUMPDEST PUSH2 0x140 PUSH2 0x145 SWAP2 PUSH2 0x123 JUMP JUMPDEST PUSH2 0x129 JUMP JUMPDEST SWAP1 JUMP JUMPDEST PUSH2 0x152 SWAP1 SLOAD PUSH2 0x134 JUMP JUMPDEST SWAP1 JUMP JUMPDEST PUSH2 0x162 PUSH1 0x0 PUSH1 0x3 ADD PUSH2 0x148 JUMP JUMPDEST SWAP1 JUMP JUMPDEST PUSH6 0xFFFFFFFFFFFF AND SWAP1 JUMP JUMPDEST PUSH2 0x179 SWAP1 PUSH2 0x165 JUMP JUMPDEST SWAP1 MSTORE JUMP JUMPDEST SWAP2 SWAP1 PUSH2 0x191 SWAP1 PUSH1 0x0 PUSH1 0x20 DUP6 ADD SWAP5 ADD SWAP1 PUSH2 0x170 JUMP JUMPDEST JUMP JUMPDEST CALLVALUE PUSH2 0x1C3 JUMPI PUSH2 0x1A3 CALLDATASIZE PUSH1 0x4 PUSH2 0x113 JUMP JUMPDEST PUSH2 0x1BF PUSH2 0x1AE PUSH2 0x155 JUMP JUMPDEST PUSH2 0x1B6 PUSH2 0x103 JUMP JUMPDEST SWAP2 DUP3 SWAP2 DUP3 PUSH2 0x17D JUMP JUMPDEST SUB SWAP1 RETURN JUMPDEST PUSH2 0x109 JUMP JUMPDEST SHR SWAP1 JUMP JUMPDEST PUSH2 0x1DC SWAP1 PUSH1 0x8 PUSH2 0x1E1 SWAP4 MUL PUSH2 0x1C8 JUMP JUMPDEST PUSH2 0x129 JUMP JUMPDEST SWAP1 JUMP JUMPDEST SWAP1 PUSH2 0x1EF SWAP2 SLOAD PUSH2 0x1CC JUMP JUMPDEST SWAP1 JUMP JUMPDEST PUSH2 0x1FF PUSH1 0x2 PUSH1 0x14 SWAP1 PUSH2 0x1E4 JUMP JUMPDEST SWAP1 JUMP JUMPDEST CALLVALUE PUSH2 0x232 JUMPI PUSH2 0x212 CALLDATASIZE PUSH1 0x4 PUSH2 0x113 JUMP JUMPDEST PUSH2 0x22E PUSH2 0x21D PUSH2 0x1F2 JUMP JUMPDEST PUSH2 0x225 PUSH2 0x103 JUMP JUMPDEST SWAP2 DUP3 SWAP2 DUP3 PUSH2 0x17D JUMP JUMPDEST SUB SWAP1 RETURN JUMPDEST PUSH2 0x109 JUMP JUMPDEST PUSH1 0xFF AND SWAP1 JUMP JUMPDEST PUSH2 0x24D SWAP1 PUSH1 0x8 PUSH2 0x252 SWAP4 MUL PUSH2 0x1C8 JUMP JUMPDEST PUSH2 0x237 JUMP JUMPDEST SWAP1 JUMP JUMPDEST SWAP1 PUSH2 0x260 SWAP2 SLOAD PUSH2 0x23D JUMP JUMPDEST SWAP1 JUMP JUMPDEST PUSH2 0x270 PUSH1 0x2 PUSH1 0x1A SWAP1 PUSH2 0x255 JUMP JUMPDEST SWAP1 JUMP JUMPDEST ISZERO ISZERO SWAP1 JUMP JUMPDEST PUSH2 0x281 SWAP1 PUSH2 0x273 JUMP JUMPDEST SWAP1 MSTORE JUMP JUMPDEST SWAP2 SWAP1 PUSH2 0x299 SWAP1 PUSH1 0x0 PUSH1 0x20 DUP6 ADD SWAP5 ADD SWAP1 PUSH2 0x278 JUMP JUMPDEST JUMP JUMPDEST CALLVALUE PUSH2 0x2CB JUMPI PUSH2 0x2AB CALLDATASIZE PUSH1 0x4 PUSH2 0x113 JUMP JUMPDEST PUSH2 0x2C7 PUSH2 0x2B6 PUSH2 0x263 JUMP JUMPDEST PUSH2 0x2BE PUSH2 0x103 JUMP JUMPDEST SWAP2 DUP3 SWAP2 DUP3 PUSH2 0x285 JUMP JUMPDEST SUB SWAP1 RETURN JUMPDEST PUSH2 0x109 JUMP JUMPDEST PUSH1 0x0 ADD SWAP1 JUMP JUMPDEST CALLVALUE PUSH2 0x304 JUMPI PUSH2 0x2E6 CALLDATASIZE PUSH1 0x4 PUSH2 0x113 JUMP JUMPDEST PUSH2 0x2EE PUSH2 0x811 JUMP JUMPDEST PUSH2 0x2F6 PUSH2 0x103 JUMP JUMPDEST DUP1 PUSH2 0x300 DUP2 PUSH2 0x2D0 JUMP JUMPDEST SUB SWAP1 RETURN JUMPDEST PUSH2 0x109 JUMP JUMPDEST PUSH1 0xFF AND SWAP1 JUMP JUMPDEST PUSH2 0x318 DUP2 PUSH2 0x309 JUMP JUMPDEST SUB PUSH2 0x31F JUMPI JUMP JUMPDEST PUSH1 0x0 DUP1 REVERT JUMPDEST SWAP1 POP CALLDATALOAD SWAP1 PUSH2 0x331 DUP3 PUSH2 0x30F JUMP JUMPDEST JUMP JUMPDEST SWAP1 PUSH1 0x20 DUP3 DUP3 SUB SLT PUSH2 0x34D JUMPI PUSH2 0x34A SWAP2 PUSH1 0x0 ADD PUSH2 0x324 JUMP JUMPDEST SWAP1 JUMP JUMPDEST PUSH2 0x10E JUMP JUMPDEST PUSH2 0x365 PUSH2 0x360 CALLDATASIZE PUSH1 0x4 PUSH2 0x333 JUMP JUMPDEST PUSH2 0xD0E JUMP JUMPDEST PUSH2 0x36D PUSH2 0x103 JUMP JUMPDEST DUP1 PUSH2 0x377 DUP2 PUSH2 0x2D0 JUMP JUMPDEST SUB SWAP1 RETURN JUMPDEST CALLVALUE PUSH2 0x3AB JUMPI PUSH2 0x38B CALLDATASIZE PUSH1 0x4 PUSH2 0x113 JUMP JUMPDEST PUSH2 0x3A7 PUSH2 0x396 PUSH2 0xD1E JUMP JUMPDEST PUSH2 0x39E PUSH2 0x103 JUMP JUMPDEST SWAP2 DUP3 SWAP2 DUP3 PUSH2 0x285 JUMP JUMPDEST SUB SWAP1 RETURN JUMPDEST PUSH2 0x109 JUMP JUMPDEST PUSH1 0x1 DUP1 PUSH1 0xA0 SHL SUB AND SWAP1 JUMP JUMPDEST PUSH2 0x3CB SWAP1 PUSH1 0x8 PUSH2 0x3D0 SWAP4 MUL PUSH2 0x1C8 JUMP JUMPDEST PUSH2 0x3B0 JUMP JUMPDEST SWAP1 JUMP JUMPDEST SWAP1 PUSH2 0x3DE SWAP2 SLOAD PUSH2 0x3BB JUMP JUMPDEST SWAP1 JUMP JUMPDEST PUSH2 0x3EC PUSH1 0x0 DUP1 PUSH2 0x3D3 JUMP JUMPDEST SWAP1 JUMP JUMPDEST PUSH1 0x1 DUP1 PUSH1 0xA0 SHL SUB AND SWAP1 JUMP JUMPDEST PUSH2 0x403 SWAP1 PUSH2 0x3EF JUMP JUMPDEST SWAP1 JUMP JUMPDEST PUSH2 0x40F SWAP1 PUSH2 0x3FA JUMP JUMPDEST SWAP1 MSTORE JUMP JUMPDEST SWAP2 SWAP1 PUSH2 0x427 SWAP1 PUSH1 0x0 PUSH1 0x20 DUP6 ADD SWAP5 ADD SWAP1 PUSH2 0x406 JUMP JUMPDEST JUMP JUMPDEST CALLVALUE PUSH2 0x459 JUMPI PUSH2 0x439 CALLDATASIZE PUSH1 0x4 PUSH2 0x113 JUMP JUMPDEST PUSH2 0x455 PUSH2 0x444 PUSH2 0x3E1 JUMP JUMPDEST PUSH2 0x44C PUSH2 0x103 JUMP JUMPDEST SWAP2 DUP3 SWAP2 DUP3 PUSH2 0x413 JUMP JUMPDEST SUB SWAP1 RETURN JUMPDEST PUSH2 0x109 JUMP JUMPDEST CALLVALUE PUSH2 0x48C JUMPI PUSH2 0x46E CALLDATASIZE PUSH1 0x4 PUSH2 0x113 JUMP JUMPDEST PUSH2 0x476 PUSH2 0xDE3 JUMP JUMPDEST PUSH2 0x47E PUSH2 0x103 JUMP JUMPDEST DUP1 PUSH2 0x488 DUP2 PUSH2 0x2D0 JUMP JUMPDEST SUB SWAP1 RETURN JUMPDEST PUSH2 0x109 JUMP JUMPDEST PUSH2 0x49E PUSH1 0x2 PUSH1 0x0 SWAP1 PUSH2 0x3D3 JUMP JUMPDEST SWAP1 JUMP JUMPDEST CALLVALUE PUSH2 0x4D1 JUMPI PUSH2 0x4B1 CALLDATASIZE PUSH1 0x4 PUSH2 0x113 JUMP JUMPDEST PUSH2 0x4CD PUSH2 0x4BC PUSH2 0x491 JUMP JUMPDEST PUSH2 0x4C4 PUSH2 0x103 JUMP JUMPDEST SWAP2 DUP3 SWAP2 DUP3 PUSH2 0x413 JUMP JUMPDEST SUB SWAP1 RETURN JUMPDEST PUSH2 0x109 JUMP JUMPDEST PUSH2 0x4E1 CALLDATASIZE PUSH1 0x4 PUSH2 0x113 JUMP JUMPDEST PUSH2 0x4E9 PUSH2 0xF6A JUMP JUMPDEST PUSH2 0x4F1 PUSH2 0x103 JUMP JUMPDEST DUP1 PUSH2 0x4FB DUP2 PUSH2 0x2D0 JUMP JUMPDEST SUB SWAP1 RETURN JUMPDEST PUSH2 0x50C PUSH1 0x1 PUSH1 0x0 SWAP1 PUSH2 0x3D3 JUMP JUMPDEST SWAP1 JUMP JUMPDEST CALLVALUE PUSH2 0x53F JUMPI PUSH2 0x51F CALLDATASIZE PUSH1 0x4 PUSH2 0x113 JUMP JUMPDEST PUSH2 0x53B PUSH2 0x52A PUSH2 0x4FF JUMP JUMPDEST PUSH2 0x532 PUSH2 0x103 JUMP JUMPDEST SWAP2 DUP3 SWAP2 DUP3 PUSH2 0x413 JUMP JUMPDEST SUB SWAP1 RETURN JUMPDEST PUSH2 0x109 JUMP JUMPDEST PUSH2 0x54D DUP2 PUSH2 0x165 JUMP JUMPDEST SUB PUSH2 0x554 JUMPI JUMP JUMPDEST PUSH1 0x0 DUP1 REVERT JUMPDEST SWAP1 POP CALLDATALOAD SWAP1 PUSH2 0x566 DUP3 PUSH2 0x544 JUMP JUMPDEST JUMP JUMPDEST SWAP2 SWAP1 PUSH1 0x40 DUP4 DUP3 SUB SLT PUSH2 0x591 JUMPI DUP1 PUSH2 0x585 PUSH2 0x58E SWAP3 PUSH1 0x0 DUP7 ADD PUSH2 0x559 JUMP JUMPDEST SWAP4 PUSH1 0x20 ADD PUSH2 0x559 JUMP JUMPDEST SWAP1 JUMP JUMPDEST PUSH2 0x10E JUMP JUMPDEST CALLVALUE PUSH2 0x5C5 JUMPI PUSH2 0x5AF PUSH2 0x5A9 CALLDATASIZE PUSH1 0x4 PUSH2 0x568 JUMP JUMPDEST SWAP1 PUSH2 0x1519 JUMP JUMPDEST PUSH2 0x5B7 PUSH2 0x103 JUMP JUMPDEST DUP1 PUSH2 0x5C1 DUP2 PUSH2 0x2D0 JUMP JUMPDEST SUB SWAP1 RETURN JUMPDEST PUSH2 0x109 JUMP JUMPDEST PUSH2 0x5D7 PUSH1 0x0 PUSH1 0x14 SWAP1 PUSH2 0x1E4 JUMP JUMPDEST SWAP1 JUMP JUMPDEST CALLVALUE PUSH2 0x60A JUMPI PUSH2 0x5EA CALLDATASIZE PUSH1 0x4 PUSH2 0x113 JUMP JUMPDEST PUSH2 0x606 PUSH2 0x5F5 PUSH2 0x5CA JUMP JUMPDEST PUSH2 0x5FD PUSH2 0x103 JUMP JUMPDEST SWAP2 DUP3 SWAP2 DUP3 PUSH2 0x17D JUMP JUMPDEST SUB SWAP1 RETURN JUMPDEST PUSH2 0x109 JUMP JUMPDEST PUSH1 0x30 SHR SWAP1 JUMP JUMPDEST PUSH2 0x621 PUSH2 0x626 SWAP2 PUSH2 0x60F JUMP JUMPDEST PUSH2 0x129 JUMP JUMPDEST SWAP1 JUMP JUMPDEST PUSH2 0x633 SWAP1 SLOAD PUSH2 0x615 JUMP JUMPDEST SWAP1 JUMP JUMPDEST PUSH1 0x5 SWAP1 PUSH2 0x650 PUSH1 0x0 PUSH2 0x649 DUP2 DUP6 ADD PUSH2 0x148 JUMP JUMPDEST SWAP4 ADD PUSH2 0x629 JUMP JUMPDEST SWAP1 JUMP JUMPDEST SWAP2 PUSH1 0x20 PUSH2 0x675 SWAP3 SWAP5 SWAP4 PUSH2 0x66E PUSH1 0x40 DUP3 ADD SWAP7 PUSH1 0x0 DUP4 ADD SWAP1 PUSH2 0x170 JUMP JUMPDEST ADD SWAP1 PUSH2 0x170 JUMP JUMPDEST JUMP JUMPDEST CALLVALUE PUSH2 0x6A8 JUMPI PUSH2 0x687 CALLDATASIZE PUSH1 0x4 PUSH2 0x113 JUMP JUMPDEST PUSH2 0x68F PUSH2 0x636 JUMP JUMPDEST SWAP1 PUSH2 0x6A4 PUSH2 0x69B PUSH2 0x103 JUMP JUMPDEST SWAP3 DUP4 SWAP3 DUP4 PUSH2 0x653 JUMP JUMPDEST SUB SWAP1 RETURN JUMPDEST PUSH2 0x109 JUMP JUMPDEST PUSH1 0x0 DUP1 REVERT JUMPDEST PUSH2 0x6BE PUSH2 0x6C3 SWAP2 PUSH2 0x123 JUMP JUMPDEST PUSH2 0x3B0 JUMP JUMPDEST SWAP1 JUMP JUMPDEST PUSH2 0x6D0 SWAP1 SLOAD PUSH2 0x6B2 JUMP JUMPDEST SWAP1 JUMP JUMPDEST PUSH1 0x20 SWAP2 DUP2 MSTORE ADD SWAP1 JUMP JUMPDEST PUSH1 0x20 PUSH32 0x697320616374696F6E0000000000000000000000000000000000000000000000 SWAP2 PUSH32 0x4F6E6C792074686520656D706C6F7965722063616E20706572666F726D207468 PUSH1 0x0 DUP3 ADD MSTORE ADD MSTORE JUMP JUMPDEST PUSH2 0x737 PUSH1 0x29 PUSH1 0x40 SWAP3 PUSH2 0x6D3 JUMP JUMPDEST PUSH2 0x740 DUP2 PUSH2 0x6DC JUMP JUMPDEST ADD SWAP1 JUMP JUMPDEST PUSH2 0x75A SWAP1 PUSH1 0x20 DUP2 ADD SWAP1 PUSH1 0x0 DUP2 DUP4 SUB SWAP2 ADD MSTORE PUSH2 0x72A JUMP JUMPDEST SWAP1 JUMP JUMPDEST ISZERO PUSH2 0x764 JUMPI JUMP JUMPDEST PUSH2 0x76C PUSH2 0x103 JUMP JUMPDEST PUSH3 0x461BCD PUSH1 0xE5 SHL DUP2 MSTORE DUP1 PUSH2 0x782 PUSH1 0x4 DUP3 ADD PUSH2 0x744 JUMP JUMPDEST SUB SWAP1 REVERT JUMPDEST PUSH2 0x7AB CALLER PUSH2 0x7A5 PUSH2 0x79F PUSH2 0x79A PUSH1 0x1 PUSH2 0x6C6 JUMP JUMPDEST PUSH2 0x3FA JUMP JUMPDEST SWAP2 PUSH2 0x3FA JUMP JUMPDEST EQ PUSH2 0x75D JUMP JUMPDEST PUSH2 0x7B3 PUSH2 0x803 JUMP JUMPDEST JUMP JUMPDEST PUSH1 0xD0 SHL SWAP1 JUMP JUMPDEST SWAP1 PUSH2 0x7CA PUSH1 0xFF PUSH1 0xD0 SHL SWAP2 PUSH2 0x7B5 JUMP JUMPDEST SWAP2 DUP2 NOT AND SWAP2 AND OR SWAP1 JUMP JUMPDEST PUSH2 0x7DD SWAP1 PUSH2 0x273 JUMP JUMPDEST SWAP1 JUMP JUMPDEST SWAP1 JUMP JUMPDEST SWAP1 PUSH2 0x7F8 PUSH2 0x7F3 PUSH2 0x7FF SWAP3 PUSH2 0x7D4 JUMP JUMPDEST PUSH2 0x7E0 JUMP JUMPDEST DUP3 SLOAD PUSH2 0x7BB JUMP JUMPDEST SWAP1 SSTORE JUMP JUMPDEST PUSH2 0x80F PUSH1 0x0 PUSH1 0x2 PUSH2 0x7E3 JUMP JUMPDEST JUMP JUMPDEST PUSH2 0x819 PUSH2 0x786 JUMP JUMPDEST JUMP JUMPDEST PUSH2 0x849 SWAP1 PUSH2 0x844 CALLER PUSH2 0x83E PUSH2 0x838 PUSH2 0x833 PUSH1 0x1 PUSH2 0x6C6 JUMP JUMPDEST PUSH2 0x3FA JUMP JUMPDEST SWAP2 PUSH2 0x3FA JUMP JUMPDEST EQ PUSH2 0x75D JUMP JUMPDEST PUSH2 0x8F6 JUMP JUMPDEST JUMP JUMPDEST PUSH1 0xD0 SHR SWAP1 JUMP JUMPDEST PUSH2 0x85D PUSH2 0x862 SWAP2 PUSH2 0x84B JUMP JUMPDEST PUSH2 0x237 JUMP JUMPDEST SWAP1 JUMP JUMPDEST PUSH2 0x86F SWAP1 SLOAD PUSH2 0x851 JUMP JUMPDEST SWAP1 JUMP JUMPDEST PUSH1 0x0 PUSH32 0x436F6E7472616374206973206E6F742061637469766500000000000000000000 SWAP2 ADD MSTORE JUMP JUMPDEST PUSH2 0x8A7 PUSH1 0x16 PUSH1 0x20 SWAP3 PUSH2 0x6D3 JUMP JUMPDEST PUSH2 0x8B0 DUP2 PUSH2 0x872 JUMP JUMPDEST ADD SWAP1 JUMP JUMPDEST PUSH2 0x8CA SWAP1 PUSH1 0x20 DUP2 ADD SWAP1 PUSH1 0x0 DUP2 DUP4 SUB SWAP2 ADD MSTORE PUSH2 0x89A JUMP JUMPDEST SWAP1 JUMP JUMPDEST ISZERO PUSH2 0x8D4 JUMPI JUMP JUMPDEST PUSH2 0x8DC PUSH2 0x103 JUMP JUMPDEST PUSH3 0x461BCD PUSH1 0xE5 SHL DUP2 MSTORE DUP1 PUSH2 0x8F2 PUSH1 0x4 DUP3 ADD PUSH2 0x8B4 JUMP JUMPDEST SUB SWAP1 REVERT JUMPDEST PUSH2 0x911 SWAP1 PUSH2 0x90C PUSH2 0x907 PUSH1 0x2 PUSH2 0x865 JUMP JUMPDEST PUSH2 0x8CD JUMP JUMPDEST PUSH2 0xC2A JUMP JUMPDEST JUMP JUMPDEST PUSH4 0x4E487B71 PUSH1 0xE0 SHL PUSH1 0x0 MSTORE PUSH1 0x32 PUSH1 0x4 MSTORE PUSH1 0x24 PUSH1 0x0 REVERT JUMPDEST SLOAD SWAP1 JUMP JUMPDEST PUSH1 0x0 MSTORE PUSH1 0x20 PUSH1 0x0 KECCAK256 SWAP1 JUMP JUMPDEST PUSH2 0x941 DUP2 PUSH2 0x929 JUMP JUMPDEST DUP3 LT ISZERO PUSH2 0x95C JUMPI PUSH2 0x953 PUSH1 0x3 SWAP2 PUSH2 0x92D JUMP JUMPDEST SWAP2 MUL ADD SWAP1 PUSH1 0x0 SWAP1 JUMP JUMPDEST PUSH2 0x913 JUMP JUMPDEST SWAP1 PUSH2 0x96B SWAP1 PUSH2 0x165 JUMP JUMPDEST SWAP1 MSTORE JUMP JUMPDEST SWAP1 JUMP JUMPDEST PUSH2 0x97E PUSH2 0x983 SWAP2 PUSH2 0x123 JUMP JUMPDEST PUSH2 0x96F JUMP JUMPDEST SWAP1 JUMP JUMPDEST PUSH2 0x990 SWAP1 SLOAD PUSH2 0x972 JUMP JUMPDEST SWAP1 JUMP JUMPDEST SWAP1 JUMP JUMPDEST SWAP1 PUSH2 0x9A0 SWAP1 PUSH2 0x993 JUMP JUMPDEST SWAP1 MSTORE JUMP JUMPDEST PUSH1 0xFF AND SWAP1 JUMP JUMPDEST PUSH2 0x9B6 PUSH2 0x9BB SWAP2 PUSH2 0x123 JUMP JUMPDEST PUSH2 0x9A4 JUMP JUMPDEST SWAP1 JUMP JUMPDEST PUSH2 0x9C8 SWAP1 SLOAD PUSH2 0x9AA JUMP JUMPDEST SWAP1 JUMP JUMPDEST PUSH4 0x4E487B71 PUSH1 0xE0 SHL PUSH1 0x0 MSTORE PUSH1 0x21 PUSH1 0x4 MSTORE PUSH1 0x24 PUSH1 0x0 REVERT JUMPDEST PUSH1 0x3 GT ISZERO PUSH2 0x9EB JUMPI JUMP JUMPDEST PUSH2 0x9CB JUMP JUMPDEST SWAP1 PUSH2 0x9FA DUP3 PUSH2 0x9E1 JUMP JUMPDEST JUMP JUMPDEST SWAP1 PUSH2 0xA06 SWAP1 PUSH2 0x9F0 JUMP JUMPDEST SWAP1 MSTORE JUMP JUMPDEST PUSH1 0x1F DUP1 NOT SWAP2 ADD AND SWAP1 JUMP JUMPDEST PUSH4 0x4E487B71 PUSH1 0xE0 SHL PUSH1 0x0 MSTORE PUSH1 0x41 PUSH1 0x4 MSTORE PUSH1 0x24 PUSH1 0x0 REVERT JUMPDEST SWAP1 PUSH2 0xA34 SWAP1 PUSH2 0xA0A JUMP JUMPDEST DUP2 ADD SWAP1 DUP2 LT PUSH8 0xFFFFFFFFFFFFFFFF DUP3 GT OR PUSH2 0xA4E JUMPI PUSH1 0x40 MSTORE JUMP JUMPDEST PUSH2 0xA14 JUMP JUMPDEST SWAP1 PUSH2 0xA66 PUSH2 0xA5F PUSH2 0x103 JUMP JUMPDEST SWAP3 DUP4 PUSH2 0xA2A JUMP JUMPDEST JUMP JUMPDEST PUSH2 0xA72 PUSH1 0x80 PUSH2 0xA53 JUMP JUMPDEST SWAP1 JUMP JUMPDEST SWAP1 PUSH2 0xADE PUSH2 0xAD5 PUSH1 0x2 PUSH2 0xA86 PUSH2 0xA68 JUMP JUMPDEST SWAP5 PUSH2 0xA9F PUSH2 0xA96 PUSH1 0x0 DUP4 ADD PUSH2 0x148 JUMP JUMPDEST PUSH1 0x0 DUP9 ADD PUSH2 0x961 JUMP JUMPDEST PUSH2 0xAB7 PUSH2 0xAAE PUSH1 0x0 DUP4 ADD PUSH2 0x629 JUMP JUMPDEST PUSH1 0x20 DUP9 ADD PUSH2 0x961 JUMP JUMPDEST PUSH2 0xACF PUSH2 0xAC6 PUSH1 0x1 DUP4 ADD PUSH2 0x986 JUMP JUMPDEST PUSH1 0x40 DUP9 ADD PUSH2 0x996 JUMP JUMPDEST ADD PUSH2 0x9BE JUMP JUMPDEST PUSH1 0x60 DUP5 ADD PUSH2 0x9FC JUMP JUMPDEST JUMP JUMPDEST PUSH2 0xAE9 SWAP1 PUSH2 0xA75 JUMP JUMPDEST SWAP1 JUMP JUMPDEST PUSH2 0xAF6 SWAP1 MLOAD PUSH2 0x9F0 JUMP JUMPDEST SWAP1 JUMP JUMPDEST PUSH1 0x0 PUSH32 0x5369636B206C656176652077696C6C20626520696E2070656E64696E67000000 SWAP2 ADD MSTORE JUMP JUMPDEST PUSH2 0xB2E PUSH1 0x1D PUSH1 0x20 SWAP3 PUSH2 0x6D3 JUMP JUMPDEST PUSH2 0xB37 DUP2 PUSH2 0xAF9 JUMP JUMPDEST ADD SWAP1 JUMP JUMPDEST PUSH2 0xB51 SWAP1 PUSH1 0x20 DUP2 ADD SWAP1 PUSH1 0x0 DUP2 DUP4 SUB SWAP2 ADD MSTORE PUSH2 0xB21 JUMP JUMPDEST SWAP1 JUMP JUMPDEST ISZERO PUSH2 0xB5B JUMPI JUMP JUMPDEST PUSH2 0xB63 PUSH2 0x103 JUMP JUMPDEST PUSH3 0x461BCD PUSH1 0xE5 SHL DUP2 MSTORE DUP1 PUSH2 0xB79 PUSH1 0x4 DUP3 ADD PUSH2 0xB3B JUMP JUMPDEST SUB SWAP1 REVERT JUMPDEST SWAP1 JUMP JUMPDEST PUSH2 0xB94 PUSH2 0xB8F PUSH2 0xB99 SWAP3 PUSH2 0x3EF JUMP JUMPDEST PUSH2 0xB7D JUMP JUMPDEST PUSH2 0x3EF JUMP JUMPDEST SWAP1 JUMP JUMPDEST PUSH2 0xBA5 SWAP1 PUSH2 0xB80 JUMP JUMPDEST SWAP1 JUMP JUMPDEST PUSH2 0xBB1 SWAP1 PUSH2 0xB9C JUMP JUMPDEST SWAP1 JUMP JUMPDEST PUSH2 0xBBD SWAP1 PUSH2 0xB80 JUMP JUMPDEST SWAP1 JUMP JUMPDEST PUSH2 0xBC9 SWAP1 PUSH2 0xBB4 JUMP JUMPDEST SWAP1 JUMP JUMPDEST PUSH2 0xBD6 SWAP1 MLOAD PUSH2 0x993 JUMP JUMPDEST SWAP1 JUMP JUMPDEST PUSH2 0xBE1 PUSH2 0x103 JUMP JUMPDEST RETURNDATASIZE PUSH1 0x0 DUP3 RETURNDATACOPY RETURNDATASIZE SWAP1 REVERT JUMPDEST PUSH2 0xBF3 SWAP1 PUSH2 0x993 JUMP JUMPDEST SWAP1 MSTORE JUMP JUMPDEST PUSH1 0x40 SWAP1 PUSH2 0xC21 PUSH2 0xC28 SWAP5 SWAP7 SWAP6 SWAP4 SWAP7 PUSH2 0xC17 PUSH1 0x60 DUP5 ADD SWAP9 PUSH1 0x0 DUP6 ADD SWAP1 PUSH2 0x406 JUMP JUMPDEST PUSH1 0x20 DUP4 ADD SWAP1 PUSH2 0x406 JUMP JUMPDEST ADD SWAP1 PUSH2 0xBEA JUMP JUMPDEST JUMP JUMPDEST PUSH2 0xC3B PUSH2 0xC41 SWAP2 PUSH1 0x1 PUSH1 0x5 ADD PUSH2 0x938 JUMP JUMPDEST POP PUSH2 0xAE0 JUMP JUMPDEST PUSH2 0xC69 PUSH2 0xC50 PUSH1 0x60 DUP4 ADD PUSH2 0xAEC JUMP JUMPDEST PUSH2 0xC63 PUSH2 0xC5D PUSH1 0x0 PUSH2 0x9F0 JUMP JUMPDEST SWAP2 PUSH2 0x9F0 JUMP JUMPDEST EQ PUSH2 0xB54 JUMP JUMPDEST PUSH1 0x0 DUP1 DUP1 DUP1 PUSH2 0xC88 PUSH2 0xC83 PUSH2 0xC7E PUSH1 0x1 PUSH2 0x6C6 JUMP JUMPDEST PUSH2 0xBA8 JUMP JUMPDEST PUSH2 0xBC0 JUMP JUMPDEST PUSH2 0xC94 PUSH1 0x40 DUP8 ADD PUSH2 0xBCC JUMP JUMPDEST SWAP1 DUP3 DUP3 ISZERO PUSH2 0xD05 JUMPI JUMPDEST CALL ISZERO PUSH2 0xD00 JUMPI PUSH2 0xCAD PUSH1 0x1 PUSH2 0x6C6 JUMP JUMPDEST SWAP1 PUSH2 0xCC4 PUSH1 0x40 PUSH2 0xCBD PUSH1 0x2 PUSH2 0x6C6 JUMP JUMPDEST SWAP3 ADD PUSH2 0xBCC JUMP JUMPDEST SWAP2 PUSH2 0xCFB PUSH32 0x4777C503C13BCE5021C03CE8AD65C9ACC5614B088498CCDD4F4ABDB5981698FF SWAP4 PUSH2 0xCF2 PUSH2 0x103 JUMP JUMPDEST SWAP4 DUP5 SWAP4 DUP5 PUSH2 0xBF7 JUMP JUMPDEST SUB SWAP1 LOG1 JUMP JUMPDEST PUSH2 0xBD9 JUMP JUMPDEST POP PUSH2 0x8FC PUSH2 0xC9D JUMP JUMPDEST PUSH2 0xD17 SWAP1 PUSH2 0x81B JUMP JUMPDEST JUMP JUMPDEST PUSH1 0x0 SWAP1 JUMP JUMPDEST PUSH2 0xD26 PUSH2 0xD19 JUMP JUMPDEST POP PUSH2 0xD31 PUSH1 0x2 PUSH2 0x865 JUMP JUMPDEST SWAP1 JUMP JUMPDEST PUSH2 0xD3D SWAP1 PUSH2 0xBB4 JUMP JUMPDEST SWAP1 JUMP JUMPDEST SWAP1 JUMP JUMPDEST PUSH2 0xD57 PUSH2 0xD52 PUSH2 0xD5C SWAP3 PUSH2 0xD40 JUMP JUMPDEST PUSH2 0xB7D JUMP JUMPDEST PUSH2 0x993 JUMP JUMPDEST SWAP1 JUMP JUMPDEST PUSH1 0x0 PUSH32 0x496E73756666696369656E742062616C616E6365000000000000000000000000 SWAP2 ADD MSTORE JUMP JUMPDEST PUSH2 0xD94 PUSH1 0x14 PUSH1 0x20 SWAP3 PUSH2 0x6D3 JUMP JUMPDEST PUSH2 0xD9D DUP2 PUSH2 0xD5F JUMP JUMPDEST ADD SWAP1 JUMP JUMPDEST PUSH2 0xDB7 SWAP1 PUSH1 0x20 DUP2 ADD SWAP1 PUSH1 0x0 DUP2 DUP4 SUB SWAP2 ADD MSTORE PUSH2 0xD87 JUMP JUMPDEST SWAP1 JUMP JUMPDEST ISZERO PUSH2 0xDC1 JUMPI JUMP JUMPDEST PUSH2 0xDC9 PUSH2 0x103 JUMP JUMPDEST PUSH3 0x461BCD PUSH1 0xE5 SHL DUP2 MSTORE DUP1 PUSH2 0xDDF PUSH1 0x4 DUP3 ADD PUSH2 0xDA1 JUMP JUMPDEST SUB SWAP1 REVERT JUMPDEST PUSH2 0xE0A PUSH2 0xDEF ADDRESS PUSH2 0xD34 JUMP JUMPDEST BALANCE PUSH2 0xE03 PUSH2 0xDFD PUSH1 0xC8 PUSH2 0xD43 JUMP JUMPDEST SWAP2 PUSH2 0x993 JUMP JUMPDEST LT ISZERO PUSH2 0xDBA JUMP JUMPDEST PUSH2 0xE16 PUSH1 0x1 PUSH1 0x2 PUSH2 0x7E3 JUMP JUMPDEST JUMP JUMPDEST PUSH2 0xE3D CALLER PUSH2 0xE37 PUSH2 0xE31 PUSH2 0xE2C PUSH1 0x1 PUSH2 0x6C6 JUMP JUMPDEST PUSH2 0x3FA JUMP JUMPDEST SWAP2 PUSH2 0x3FA JUMP JUMPDEST EQ PUSH2 0x75D JUMP JUMPDEST PUSH2 0xE45 PUSH2 0xE47 JUMP JUMPDEST JUMP JUMPDEST PUSH2 0xE59 PUSH2 0xE54 PUSH1 0x2 PUSH2 0x865 JUMP JUMPDEST PUSH2 0x8CD JUMP JUMPDEST PUSH2 0xE61 PUSH2 0xF03 JUMP JUMPDEST JUMP JUMPDEST PUSH2 0xE77 PUSH2 0xE72 PUSH2 0xE7C SWAP3 PUSH2 0x165 JUMP JUMPDEST PUSH2 0xB7D JUMP JUMPDEST PUSH2 0x993 JUMP JUMPDEST SWAP1 JUMP JUMPDEST PUSH1 0x0 PUSH32 0x496E636F72726563742073616C61727920616D6F756E74000000000000000000 SWAP2 ADD MSTORE JUMP JUMPDEST PUSH2 0xEB4 PUSH1 0x17 PUSH1 0x20 SWAP3 PUSH2 0x6D3 JUMP JUMPDEST PUSH2 0xEBD DUP2 PUSH2 0xE7F JUMP JUMPDEST ADD SWAP1 JUMP JUMPDEST PUSH2 0xED7 SWAP1 PUSH1 0x20 DUP2 ADD SWAP1 PUSH1 0x0 DUP2 DUP4 SUB SWAP2 ADD MSTORE PUSH2 0xEA7 JUMP JUMPDEST SWAP1 JUMP JUMPDEST ISZERO PUSH2 0xEE1 JUMPI JUMP JUMPDEST PUSH2 0xEE9 PUSH2 0x103 JUMP JUMPDEST PUSH3 0x461BCD PUSH1 0xE5 SHL DUP2 MSTORE DUP1 PUSH2 0xEFF PUSH1 0x4 DUP3 ADD PUSH2 0xEC1 JUMP JUMPDEST SUB SWAP1 REVERT JUMPDEST PUSH2 0xF2B CALLVALUE PUSH2 0xF25 PUSH2 0xF1F PUSH2 0xF1A PUSH1 0x0 PUSH1 0x3 ADD PUSH2 0x148 JUMP JUMPDEST PUSH2 0xE63 JUMP JUMPDEST SWAP2 PUSH2 0x993 JUMP JUMPDEST EQ PUSH2 0xEDA JUMP JUMPDEST PUSH1 0x0 DUP1 DUP1 DUP1 PUSH2 0xF4A PUSH2 0xF45 PUSH2 0xF40 PUSH1 0x2 PUSH2 0x6C6 JUMP JUMPDEST PUSH2 0xBA8 JUMP JUMPDEST PUSH2 0xBC0 JUMP JUMPDEST CALLVALUE SWAP1 DUP3 DUP3 ISZERO PUSH2 0xF61 JUMPI JUMPDEST CALL ISZERO PUSH2 0xF5C JUMPI JUMP JUMPDEST PUSH2 0xBD9 JUMP JUMPDEST POP PUSH2 0x8FC PUSH2 0xF54 JUMP JUMPDEST PUSH2 0xF72 PUSH2 0xE18 JUMP JUMPDEST JUMP JUMPDEST PUSH4 0x4E487B71 PUSH1 0xE0 SHL PUSH1 0x0 MSTORE PUSH1 0x11 PUSH1 0x4 MSTORE PUSH1 0x24 PUSH1 0x0 REVERT JUMPDEST PUSH2 0xF96 PUSH2 0xF9C SWAP2 PUSH2 0x165 JUMP JUMPDEST SWAP2 PUSH2 0x165 JUMP JUMPDEST SWAP1 SUB SWAP1 PUSH6 0xFFFFFFFFFFFF DUP3 GT PUSH2 0xFAE JUMPI JUMP JUMPDEST PUSH2 0xF74 JUMP JUMPDEST SWAP1 JUMP JUMPDEST PUSH2 0xFCA PUSH2 0xFC5 PUSH2 0xFCF SWAP3 PUSH2 0xFB3 JUMP JUMPDEST PUSH2 0xB7D JUMP JUMPDEST PUSH2 0x165 JUMP JUMPDEST SWAP1 JUMP JUMPDEST PUSH4 0x4E487B71 PUSH1 0xE0 SHL PUSH1 0x0 MSTORE PUSH1 0x12 PUSH1 0x4 MSTORE PUSH1 0x24 PUSH1 0x0 REVERT JUMPDEST PUSH2 0xFF4 PUSH2 0xFFA SWAP2 PUSH2 0x165 JUMP JUMPDEST SWAP2 PUSH2 0x165 JUMP JUMPDEST SWAP1 DUP2 ISZERO PUSH2 0x1005 JUMPI DIV SWAP1 JUMP JUMPDEST PUSH2 0xFD2 JUMP JUMPDEST PUSH1 0x20 PUSH32 0x636B206C65617665000000000000000000000000000000000000000000000000 SWAP2 PUSH32 0x4F6E6C792074686520656D706C6F7965652063616E2072657175657374207369 PUSH1 0x0 DUP3 ADD MSTORE ADD MSTORE JUMP JUMPDEST PUSH2 0x1065 PUSH1 0x28 PUSH1 0x40 SWAP3 PUSH2 0x6D3 JUMP JUMPDEST PUSH2 0x106E DUP2 PUSH2 0x100A JUMP JUMPDEST ADD SWAP1 JUMP JUMPDEST PUSH2 0x1088 SWAP1 PUSH1 0x20 DUP2 ADD SWAP1 PUSH1 0x0 DUP2 DUP4 SUB SWAP2 ADD MSTORE PUSH2 0x1058 JUMP JUMPDEST SWAP1 JUMP JUMPDEST ISZERO PUSH2 0x1092 JUMPI JUMP JUMPDEST PUSH2 0x109A PUSH2 0x103 JUMP JUMPDEST PUSH3 0x461BCD PUSH1 0xE5 SHL DUP2 MSTORE DUP1 PUSH2 0x10B0 PUSH1 0x4 DUP3 ADD PUSH2 0x1072 JUMP JUMPDEST SUB SWAP1 REVERT JUMPDEST PUSH1 0x0 PUSH32 0x5374617274446174652073686F756C6420626520696E20666561747572650000 SWAP2 ADD MSTORE JUMP JUMPDEST PUSH2 0x10E9 PUSH1 0x1E PUSH1 0x20 SWAP3 PUSH2 0x6D3 JUMP JUMPDEST PUSH2 0x10F2 DUP2 PUSH2 0x10B4 JUMP JUMPDEST ADD SWAP1 JUMP JUMPDEST PUSH2 0x110C SWAP1 PUSH1 0x20 DUP2 ADD SWAP1 PUSH1 0x0 DUP2 DUP4 SUB SWAP2 ADD MSTORE PUSH2 0x10DC JUMP JUMPDEST SWAP1 JUMP JUMPDEST ISZERO PUSH2 0x1116 JUMPI JUMP JUMPDEST PUSH2 0x111E PUSH2 0x103 JUMP JUMPDEST PUSH3 0x461BCD PUSH1 0xE5 SHL DUP2 MSTORE DUP1 PUSH2 0x1134 PUSH1 0x4 DUP3 ADD PUSH2 0x10F6 JUMP JUMPDEST SUB SWAP1 REVERT JUMPDEST PUSH1 0x20 PUSH32 0x7461727444617465000000000000000000000000000000000000000000000000 SWAP2 PUSH32 0x456E64446174652073686F756C642062652067726561746572207468616E2053 PUSH1 0x0 DUP3 ADD MSTORE ADD MSTORE JUMP JUMPDEST PUSH2 0x1193 PUSH1 0x28 PUSH1 0x40 SWAP3 PUSH2 0x6D3 JUMP JUMPDEST PUSH2 0x119C DUP2 PUSH2 0x1138 JUMP JUMPDEST ADD SWAP1 JUMP JUMPDEST PUSH2 0x11B6 SWAP1 PUSH1 0x20 DUP2 ADD SWAP1 PUSH1 0x0 DUP2 DUP4 SUB SWAP2 ADD MSTORE PUSH2 0x1186 JUMP JUMPDEST SWAP1 JUMP JUMPDEST ISZERO PUSH2 0x11C0 JUMPI JUMP JUMPDEST PUSH2 0x11C8 PUSH2 0x103 JUMP JUMPDEST PUSH3 0x461BCD PUSH1 0xE5 SHL DUP2 MSTORE DUP1 PUSH2 0x11DE PUSH1 0x4 DUP3 ADD PUSH2 0x11A0 JUMP JUMPDEST SUB SWAP1 REVERT JUMPDEST PUSH1 0x0 PUSH32 0x457863656564696E67207369636B206C65617665206461797300000000000000 SWAP2 ADD MSTORE JUMP JUMPDEST PUSH2 0x1217 PUSH1 0x19 PUSH1 0x20 SWAP3 PUSH2 0x6D3 JUMP JUMPDEST PUSH2 0x1220 DUP2 PUSH2 0x11E2 JUMP JUMPDEST ADD SWAP1 JUMP JUMPDEST PUSH2 0x123A SWAP1 PUSH1 0x20 DUP2 ADD SWAP1 PUSH1 0x0 DUP2 DUP4 SUB SWAP2 ADD MSTORE PUSH2 0x120A JUMP JUMPDEST SWAP1 JUMP JUMPDEST ISZERO PUSH2 0x1244 JUMPI JUMP JUMPDEST PUSH2 0x124C PUSH2 0x103 JUMP JUMPDEST PUSH3 0x461BCD PUSH1 0xE5 SHL DUP2 MSTORE DUP1 PUSH2 0x1262 PUSH1 0x4 DUP3 ADD PUSH2 0x1224 JUMP JUMPDEST SUB SWAP1 REVERT JUMPDEST SWAP1 JUMP JUMPDEST PUSH2 0x127D PUSH2 0x1278 PUSH2 0x1282 SWAP3 PUSH2 0x1266 JUMP JUMPDEST PUSH2 0xB7D JUMP JUMPDEST PUSH2 0x993 JUMP JUMPDEST SWAP1 JUMP JUMPDEST PUSH2 0x1294 PUSH2 0x129A SWAP2 SWAP4 SWAP3 SWAP4 PUSH2 0x993 JUMP JUMPDEST SWAP3 PUSH2 0x993 JUMP JUMPDEST SWAP2 PUSH2 0x12A6 DUP4 DUP3 MUL PUSH2 0x993 JUMP JUMPDEST SWAP3 DUP2 DUP5 DIV EQ SWAP1 ISZERO OR ISZERO PUSH2 0x12B5 JUMPI JUMP JUMPDEST PUSH2 0xF74 JUMP JUMPDEST PUSH2 0x12C4 PUSH1 0x80 PUSH2 0xA53 JUMP JUMPDEST SWAP1 JUMP JUMPDEST SWAP1 JUMP JUMPDEST PUSH1 0x0 MSTORE PUSH1 0x20 PUSH1 0x0 KECCAK256 SWAP1 JUMP JUMPDEST SLOAD SWAP1 JUMP JUMPDEST PUSH2 0x12E2 DUP2 PUSH2 0x12D5 JUMP JUMPDEST DUP3 LT ISZERO PUSH2 0x12FD JUMPI PUSH2 0x12F4 PUSH1 0x3 SWAP2 PUSH2 0x12CA JUMP JUMPDEST SWAP2 MUL ADD SWAP1 PUSH1 0x0 SWAP1 JUMP JUMPDEST PUSH2 0x913 JUMP JUMPDEST PUSH4 0x4E487B71 PUSH1 0xE0 SHL PUSH1 0x0 MSTORE PUSH1 0x0 PUSH1 0x4 MSTORE PUSH1 0x24 PUSH1 0x0 REVERT JUMPDEST PUSH2 0x1322 SWAP1 MLOAD PUSH2 0x165 JUMP JUMPDEST SWAP1 JUMP JUMPDEST PUSH1 0x0 SHL SWAP1 JUMP JUMPDEST SWAP1 PUSH2 0x133C PUSH6 0xFFFFFFFFFFFF SWAP2 PUSH2 0x1325 JUMP JUMPDEST SWAP2 DUP2 NOT AND SWAP2 AND OR SWAP1 JUMP JUMPDEST PUSH2 0x135A PUSH2 0x1355 PUSH2 0x135F SWAP3 PUSH2 0x165 JUMP JUMPDEST PUSH2 0xB7D JUMP JUMPDEST PUSH2 0x165 JUMP JUMPDEST SWAP1 JUMP JUMPDEST SWAP1 JUMP JUMPDEST SWAP1 PUSH2 0x137A PUSH2 0x1375 PUSH2 0x1381 SWAP3 PUSH2 0x1346 JUMP JUMPDEST PUSH2 0x1362 JUMP JUMPDEST DUP3 SLOAD PUSH2 0x132B JUMP JUMPDEST SWAP1 SSTORE JUMP JUMPDEST PUSH1 0x30 SHL SWAP1 JUMP JUMPDEST SWAP1 PUSH2 0x13A2 PUSH12 0xFFFFFFFFFFFF000000000000 SWAP2 PUSH2 0x1385 JUMP JUMPDEST SWAP2 DUP2 NOT AND SWAP2 AND OR SWAP1 JUMP JUMPDEST SWAP1 PUSH2 0x13C1 PUSH2 0x13BC PUSH2 0x13C8 SWAP3 PUSH2 0x1346 JUMP JUMPDEST PUSH2 0x1362 JUMP JUMPDEST DUP3 SLOAD PUSH2 0x138B JUMP JUMPDEST SWAP1 SSTORE JUMP JUMPDEST SWAP1 PUSH2 0x13D9 PUSH1 0x0 NOT SWAP2 PUSH2 0x1325 JUMP JUMPDEST SWAP2 DUP2 NOT AND SWAP2 AND OR SWAP1 JUMP JUMPDEST PUSH2 0x13F7 PUSH2 0x13F2 PUSH2 0x13FC SWAP3 PUSH2 0x993 JUMP JUMPDEST PUSH2 0xB7D JUMP JUMPDEST PUSH2 0x993 JUMP JUMPDEST SWAP1 JUMP JUMPDEST SWAP1 JUMP JUMPDEST SWAP1 PUSH2 0x1417 PUSH2 0x1412 PUSH2 0x141E SWAP3 PUSH2 0x13E3 JUMP JUMPDEST PUSH2 0x13FF JUMP JUMPDEST DUP3 SLOAD PUSH2 0x13CC JUMP JUMPDEST SWAP1 SSTORE JUMP JUMPDEST SWAP1 PUSH2 0x142E PUSH1 0xFF SWAP2 PUSH2 0x1325 JUMP JUMPDEST SWAP2 DUP2 NOT AND SWAP2 AND OR SWAP1 JUMP JUMPDEST PUSH2 0x1441 SWAP1 PUSH2 0x9F0 JUMP JUMPDEST SWAP1 JUMP JUMPDEST SWAP1 JUMP JUMPDEST SWAP1 PUSH2 0x145C PUSH2 0x1457 PUSH2 0x1463 SWAP3 PUSH2 0x1438 JUMP JUMPDEST PUSH2 0x1444 JUMP JUMPDEST DUP3 SLOAD PUSH2 0x1422 JUMP JUMPDEST SWAP1 SSTORE JUMP JUMPDEST SWAP1 PUSH2 0x14C6 PUSH1 0x60 PUSH1 0x2 PUSH2 0x14CC SWAP5 PUSH2 0x148C PUSH1 0x0 DUP3 ADD PUSH2 0x1486 PUSH1 0x0 DUP9 ADD PUSH2 0x1318 JUMP JUMPDEST SWAP1 PUSH2 0x1365 JUMP JUMPDEST PUSH2 0x14A5 PUSH1 0x0 DUP3 ADD PUSH2 0x149F PUSH1 0x20 DUP9 ADD PUSH2 0x1318 JUMP JUMPDEST SWAP1 PUSH2 0x13AC JUMP JUMPDEST PUSH2 0x14BE PUSH1 0x1 DUP3 ADD PUSH2 0x14B8 PUSH1 0x40 DUP9 ADD PUSH2 0xBCC JUMP JUMPDEST SWAP1 PUSH2 0x1402 JUMP JUMPDEST ADD SWAP3 ADD PUSH2 0xAEC JUMP JUMPDEST SWAP1 PUSH2 0x1447 JUMP JUMPDEST JUMP JUMPDEST SWAP2 SWAP1 PUSH2 0x14DF JUMPI PUSH2 0x14DD SWAP2 PUSH2 0x1467 JUMP JUMPDEST JUMP JUMPDEST PUSH2 0x1302 JUMP JUMPDEST SWAP1 DUP2 SLOAD SWAP2 PUSH9 0x10000000000000000 DUP4 LT ISZERO PUSH2 0x1514 JUMPI DUP3 PUSH2 0x150C SWAP2 PUSH1 0x1 PUSH2 0x1512 SWAP6 ADD DUP2 SSTORE PUSH2 0x12D9 JUMP JUMPDEST SWAP1 PUSH2 0x14CE JUMP JUMPDEST JUMP JUMPDEST PUSH2 0xA14 JUMP JUMPDEST SWAP1 PUSH2 0x163D PUSH2 0x164F SWAP3 PUSH2 0x1634 PUSH2 0x1607 PUSH2 0x154F PUSH2 0x154A PUSH2 0x1538 DUP8 DUP7 SWAP1 PUSH2 0xF8A JUMP JUMPDEST PUSH2 0x1544 PUSH3 0x15180 PUSH2 0xFB6 JUMP JUMPDEST SWAP1 PUSH2 0xFE8 JUMP JUMPDEST PUSH2 0xE63 JUMP JUMPDEST SWAP3 PUSH2 0x15F6 PUSH2 0x157E PUSH2 0x1579 PUSH2 0x1566 PUSH1 0x0 PUSH1 0x5 ADD PUSH2 0x148 JUMP JUMPDEST PUSH2 0x1573 PUSH1 0x0 PUSH1 0x5 ADD PUSH2 0x629 JUMP JUMPDEST SWAP1 PUSH2 0xF8A JUMP JUMPDEST PUSH2 0xE63 JUMP JUMPDEST PUSH2 0x15A3 CALLER PUSH2 0x159D PUSH2 0x1597 PUSH2 0x1592 PUSH1 0x2 PUSH2 0x6C6 JUMP JUMPDEST PUSH2 0x3FA JUMP JUMPDEST SWAP2 PUSH2 0x3FA JUMP JUMPDEST EQ PUSH2 0x108B JUMP JUMPDEST PUSH2 0x15C0 TIMESTAMP PUSH2 0x15B9 PUSH2 0x15B3 DUP7 PUSH2 0xE63 JUMP JUMPDEST SWAP2 PUSH2 0x993 JUMP JUMPDEST GT ISZERO PUSH2 0x110F JUMP JUMPDEST PUSH2 0x15DC DUP9 PUSH2 0x15D6 PUSH2 0x15D0 DUP7 PUSH2 0x165 JUMP JUMPDEST SWAP2 PUSH2 0x165 JUMP JUMPDEST GT PUSH2 0x11B9 JUMP JUMPDEST PUSH2 0x15EF PUSH2 0x15E9 DUP8 SWAP3 PUSH2 0x993 JUMP JUMPDEST SWAP2 PUSH2 0x993 JUMP JUMPDEST GT ISZERO PUSH2 0x123D JUMP JUMPDEST SWAP5 SWAP3 PUSH2 0x1602 PUSH1 0x1 PUSH2 0x1269 JUMP JUMPDEST PUSH2 0x1285 JUMP JUMPDEST PUSH2 0x162B PUSH1 0x0 SWAP4 PUSH2 0x1622 PUSH2 0x1618 PUSH2 0x12BA JUMP JUMPDEST SWAP8 PUSH1 0x0 DUP10 ADD PUSH2 0x961 JUMP JUMPDEST PUSH1 0x20 DUP8 ADD PUSH2 0x961 JUMP JUMPDEST PUSH1 0x40 DUP6 ADD PUSH2 0x996 JUMP JUMPDEST PUSH1 0x60 DUP4 ADD PUSH2 0x9FC JUMP JUMPDEST PUSH2 0x164A PUSH1 0x1 PUSH1 0x5 ADD PUSH2 0x12C7 JUMP JUMPDEST PUSH2 0x14E4 JUMP JUMPDEST JUMP INVALID LOG2 PUSH5 0x6970667358 0x22 SLT KECCAK256 0x28 0xF9 EXTCODEHASH 0x27 0xDD DUP6 SELFDESTRUCT SWAP8 PUSH9 0x89FBBD6ADA7E4CF2 0xA5 0xF7 TIMESTAMP SHR 0xE0 0xE4 CREATE2 SLT EXTCODECOPY 0xD6 PUSH28 0x3E3E7764736F6C634300081C00330000000000000000000000000000 "},"methodIdentifiers":{"activateContract()":"8fda356d","employee()":"a0a1a7d7","employer()":"ae200e79","endDate()":"c24a0f8b","head()":"8f7dcfa3","isActive()":"22f3e2d4","isContractActive()":"8f5949f9","paySalary()":"a5708f94","paySickLeave(uint8)":"6e4c5a5b","requestSickLeave(uint48,uint48)":"b2bf849a","salary()":"0397b652","sickLeave()":"cc81a3b3","startDate()":"0b97bc86","terminateContract()":"2fd949ca"}}}}}